{"abi":[{"type":"constructor","inputs":[{"name":"_token","type":"address","internalType":"address"},{"name":"_wldToken","type":"address","internalType":"address"},{"name":"_uniswapFactory","type":"address","internalType":"address"},{"name":"_positionManager","type":"address","internalType":"address"},{"name":"_platformFeeRecipient","type":"address","internalType":"address"},{"name":"_creatorVestingRecipient","type":"address","internalType":"address"}],"stateMutability":"nonpayable"},{"type":"function","name":"CREATOR_VESTING_PERCENT","inputs":[],"outputs":[{"name":"","type":"uint8","internalType":"uint8"}],"stateMutability":"view"},{"type":"function","name":"LIQUIDITY_PERCENT","inputs":[],"outputs":[{"name":"","type":"uint8","internalType":"uint8"}],"stateMutability":"view"},{"type":"function","name":"PLATFORM_PERCENT","inputs":[],"outputs":[{"name":"","type":"uint8","internalType":"uint8"}],"stateMutability":"view"},{"type":"function","name":"TOKEN_LIQUIDITY_PERCENT","inputs":[],"outputs":[{"name":"","type":"uint8","internalType":"uint8"}],"stateMutability":"view"},{"type":"function","name":"creatorVestingRecipient","inputs":[],"outputs":[{"name":"","type":"address","internalType":"address"}],"stateMutability":"view"},{"type":"function","name":"getLiquidity","inputs":[],"outputs":[{"name":"","type":"uint128","internalType":"uint128"}],"stateMutability":"view"},{"type":"function","name":"getTokenId","inputs":[],"outputs":[{"name":"","type":"uint256","internalType":"uint256"}],"stateMutability":"view"},{"type":"function","name":"graduationState","inputs":[],"outputs":[{"name":"uniswapPool","type":"address","internalType":"address"},{"name":"liquidity","type":"uint128","internalType":"uint128"},{"name":"tokenId","type":"uint256","internalType":"uint256"},{"name":"isGraduated","type":"bool","internalType":"bool"}],"stateMutability":"view"},{"type":"function","name":"handleGraduation","inputs":[{"name":"finalPrice","type":"uint256","internalType":"uint256"},{"name":"totalSupply","type":"uint256","internalType":"uint256"}],"outputs":[{"name":"","type":"address","internalType":"address"}],"stateMutability":"nonpayable"},{"type":"function","name":"isGraduated","inputs":[],"outputs":[{"name":"","type":"bool","internalType":"bool"}],"stateMutability":"view"},{"type":"function","name":"owner","inputs":[],"outputs":[{"name":"","type":"address","internalType":"address"}],"stateMutability":"view"},{"type":"function","name":"platformFeeRecipient","inputs":[],"outputs":[{"name":"","type":"address","internalType":"address"}],"stateMutability":"view"},{"type":"function","name":"positionManager","inputs":[],"outputs":[{"name":"","type":"address","internalType":"contract INonfungiblePositionManager"}],"stateMutability":"view"},{"type":"function","name":"renounceOwnership","inputs":[],"outputs":[],"stateMutability":"nonpayable"},{"type":"function","name":"token","inputs":[],"outputs":[{"name":"","type":"address","internalType":"contract IERC20"}],"stateMutability":"view"},{"type":"function","name":"transferOwnership","inputs":[{"name":"newOwner","type":"address","internalType":"address"}],"outputs":[],"stateMutability":"nonpayable"},{"type":"function","name":"uniswapFactory","inputs":[],"outputs":[{"name":"","type":"address","internalType":"contract IUniswapV3Factory"}],"stateMutability":"view"},{"type":"function","name":"uniswapPool","inputs":[],"outputs":[{"name":"","type":"address","internalType":"address"}],"stateMutability":"view"},{"type":"function","name":"wldToken","inputs":[],"outputs":[{"name":"","type":"address","internalType":"contract IERC20"}],"stateMutability":"view"},{"type":"event","name":"FeesDistributed","inputs":[{"name":"platformFee","type":"uint256","indexed":false,"internalType":"uint256"},{"name":"creatorFee","type":"uint256","indexed":false,"internalType":"uint256"}],"anonymous":false},{"type":"event","name":"GraduationCompleted","inputs":[{"name":"token","type":"address","indexed":true,"internalType":"address"},{"name":"pool","type":"address","indexed":true,"internalType":"address"},{"name":"wldAmount","type":"uint256","indexed":false,"internalType":"uint256"},{"name":"tokenAmount","type":"uint256","indexed":false,"internalType":"uint256"}],"anonymous":false},{"type":"event","name":"LPNFTBurned","inputs":[{"name":"tokenId","type":"uint256","indexed":false,"internalType":"uint256"}],"anonymous":false},{"type":"event","name":"LiquidityAdded","inputs":[{"name":"tokenId","type":"uint256","indexed":false,"internalType":"uint256"},{"name":"liquidity","type":"uint128","indexed":false,"internalType":"uint128"},{"name":"amount0","type":"uint256","indexed":false,"internalType":"uint256"},{"name":"amount1","type":"uint256","indexed":false,"internalType":"uint256"}],"anonymous":false},{"type":"event","name":"OwnershipTransferred","inputs":[{"name":"previousOwner","type":"address","indexed":true,"internalType":"address"},{"name":"newOwner","type":"address","indexed":true,"internalType":"address"}],"anonymous":false},{"type":"event","name":"UniswapPoolCreated","inputs":[{"name":"pool","type":"address","indexed":true,"internalType":"address"},{"name":"token0","type":"address","indexed":true,"internalType":"address"},{"name":"token1","type":"address","indexed":true,"internalType":"address"},{"name":"fee","type":"uint24","indexed":false,"internalType":"uint24"}],"anonymous":false},{"type":"error","name":"OwnableInvalidOwner","inputs":[{"name":"owner","type":"address","internalType":"address"}]},{"type":"error","name":"OwnableUnauthorizedAccount","inputs":[{"name":"account","type":"address","internalType":"address"}]},{"type":"error","name":"ReentrancyGuardReentrantCall","inputs":[]}],"bytecode":{"object":"0x6101403461019d57601f6112f338819003918201601f19168301916001600160401b038311848410176101a15780849260c09460405283398101031261019d57610048816101b5565b90610055602082016101b5565b90610062604082016101b5565b61006e606083016101b5565b9061008760a0610080608086016101b5565b94016101b5565b93331561018a575f8054336001600160a01b0319821681178355604051989290916001600160a01b0316907f8be0079c531659141344cd1fd0a4f28419497f9722a3daafe3b4186f6b6457e09080a3600180556001600160a01b0390811660805290811660a05290811660c0521660e052610100526101205261112990816101ca823960805181818161010301526104b2015260a05181818161028601526104dc015260c0518181816102f2015261051f015260e05181818161035301526106560152610100518181816101d901528181610cc70152610d38015261012051818181610b0401528181610bbb01528181610c0d01528181610c89015261103a0152f35b631e4fbdf760e01b5f525f60045260245ffd5b5f80fd5b634e487b7160e01b5f52604160045260245ffd5b51906001600160a01b038216820361019d5756fe6080806040526004361015610012575f80fd5b5f905f3560e01c908162adc3891461102857508063010a38f51461100b5780630910a51014610fe557806326b1a86b1461046157806336f3dd27146104145780633ccfbabf146103f857806348981d8a146103dc578063715018a614610382578063791b98bc1461033d5780637a9e361c146103215780638bdb2afa146102dc5780638da5cb5b146102b55780639be3783d146102705780639e5f26021461024d578063bdd3d82514610224578063d412793e14610208578063eb13554f146101c3578063f2fde38b146101355763fc0c546a146100ee575f80fd5b346101325780600319360112610132576040517f00000000000000000000000000000000000000000000000000000000000000006001600160a01b03168152602090f35b80fd5b5034610132576020366003190112610132576004356001600160a01b038116908190036101bf5761016461109f565b80156101ab5781546001600160a01b03198116821783556001600160a01b03167f8be0079c531659141344cd1fd0a4f28419497f9722a3daafe3b4186f6b6457e08380a380f35b631e4fbdf760e01b82526004829052602482fd5b5080fd5b50346101325780600319360112610132576040517f00000000000000000000000000000000000000000000000000000000000000006001600160a01b03168152602090f35b50346101325780600319360112610132576020604051600f8152f35b50346101325780600319360112610132576002546040516001600160a01b039091168152602090f35b5034610132578060031936011261013257602060ff600554166040519015158152f35b50346101325780600319360112610132576040517f00000000000000000000000000000000000000000000000000000000000000006001600160a01b03168152602090f35b5034610132578060031936011261013257546040516001600160a01b039091168152602090f35b50346101325780600319360112610132576040517f00000000000000000000000000000000000000000000000000000000000000006001600160a01b03168152602090f35b5034610132578060031936011261013257602060405160078152f35b50346101325780600319360112610132576040517f00000000000000000000000000000000000000000000000000000000000000006001600160a01b03168152602090f35b503461013257806003193601126101325761039b61109f565b80546001600160a01b03198116825581906001600160a01b03167f8be0079c531659141344cd1fd0a4f28419497f9722a3daafe3b4186f6b6457e08280a380f35b50346101325780600319360112610132576020604051600a8152f35b5034610132578060031936011261013257602060405160538152f35b5034610132578060031936011261013257608060018060a01b03600254166001600160801b036003541660045460ff60055416916040519384526020840152604083015215156060820152f35b5034610a48576040366003190112610a48576004356024359161048261109f565b600260015414610fd657600260015560ff60055416610f9d5760405163a167129560e01b81526001600160a01b037f00000000000000000000000000000000000000000000000000000000000000008116600483018190527f0000000000000000000000000000000000000000000000000000000000000000821660248401819052610bb860448501529095929091602090829060649082905f907f0000000000000000000000000000000000000000000000000000000000000000165af1908115610f3c575f91610f5b575b506001600160a01b031693606081901b90808204600160601b1490151715610f4757843b15610a485760405163f637731d60e01b8152670de0b6b3a76400009091046001600160a01b031660048201525f8160248183895af18015610f3c57610f27575b50836bffffffffffffffffffffffff60a01b6002541617600255600160ff1960055416176005558085857f9f12f04192989812b1bc4495c726550906253dda43690b0cb421d08c30cfef866020604051610bb88152a46040516370a0823160e01b8152306004820152602081602481855afa908115610ae6578491610ef5575b50606461063f846110c5565b60405163095ea7b360e01b81526001600160a01b037f000000000000000000000000000000000000000000000000000000000000000016600482018190529290910460248201819052919291906020816044818a8d5af18015610bad57610ed8575b5060405163095ea7b360e01b81526001600160a01b0384166004820152602481018390526020816044818a895af18015610bad57610ebb575b50838810908115610eb45788925b8215610ead5785915b8315610ea65780935b15610e9e5750915b61012c420192834211610bea5760405194610160860186811067ffffffffffffffff821117610e8a57908a93929160405260018060a01b03168652602086019360018060a01b031684526040860191610bb8835260608701620d89b31981526080880190620d89b4825260a0890192835260c0890193845262ffffff60e08a01958787526101008b019788526101208b0198308a526101408c019a8b526040519b634418b22b60e11b8d5260018060a01b0390511660048d015260018060a01b0390511660248c0152511660448a01525160020b60648901525160020b60848801525160a48701525160c48601525160e48501525161010484015260018060a01b03905116610124830152516101448201526080816101648188865af18015610dfe5785918687918893610e09575b509183916001600160801b036080947f349a5134d5729502d70a88264720af4ccfc9b5dbf3866f51a0dc4e11401951ac9660045516806001600160801b03196003541617600355604051938452602084015260408301526060820152a16040516370a0823160e01b8152306004820152602081602481865afa908115610dfe578591610dcc575b506040516370a0823160e01b81523060048201526020816024818b5afa908115610dc1578691610d8f575b50600a820291801592818104600a14841715610d7b576064900492600782029182046007141715610d6757606490049082151580610d35575b610cb8575b81151580610c86575b610bfe575b606461093a826110c5565b0480820391808311610bea57141580610bb8575b610af5575b507f771d362663b46bd788cd13fc183c9432449a2be6bcb81051bfeb484afd9c5dd89160409182519182526020820152a160045480610a60575b50506020602491604051928380926370a0823160e01b82523060048301525afa928315610a5457926109fa575b50927f7202c420c776fa49c432e09662be5b716b6eb655266c3eb54f38fe987d83171b60408493602096825191825287820152a360018055604051908152f35b9150926020823d602011610a4c575b81610a1660209383611069565b81010312610a4857905190927f7202c420c776fa49c432e09662be5b716b6eb655266c3eb54f38fe987d83171b6109ba565b5f80fd5b3d9150610a09565b604051903d90823e3d90fd5b813b15610af1578491602483926040519485938492630852cd8d60e31b845260048401525af18015610ae657908491610acd575b505060206024917faab23eedad1a8a93aac0e6aae815839c699118ae3212e80278716158b130453f82600454604051908152a19161098d565b81610ad791611069565b610ae257825f610a94565b8280fd5b6040513d86823e3d90fd5b8480fd5b60405163a9059cbb60e01b81527f00000000000000000000000000000000000000000000000000000000000000006001600160a01b0316600482015260248101919091526020816044818a8d5af18015610bad57917f771d362663b46bd788cd13fc183c9432449a2be6bcb81051bfeb484afd9c5dd89391604093610b7e575b50915091610953565b610b9f9060203d602011610ba6575b610b978183611069565b8101906110db565b505f610b75565b503d610b8d565b6040513d89823e3d90fd5b507f00000000000000000000000000000000000000000000000000000000000000006001600160a01b0316151561094e565b634e487b7160e01b89526011600452602489fd5b60405163a9059cbb60e01b81527f00000000000000000000000000000000000000000000000000000000000000006001600160a01b03166004820152602481018390526020816044818b8a5af18015610c7b57610c5c575b5061092f565b610c749060203d602011610ba657610b978183611069565b505f610c56565b6040513d8a823e3d90fd5b507f00000000000000000000000000000000000000000000000000000000000000006001600160a01b0316151561092a565b60405163a9059cbb60e01b81527f00000000000000000000000000000000000000000000000000000000000000006001600160a01b03166004820152602481018490526020816044818b8a5af18015610c7b57610d16575b50610921565b610d2e9060203d602011610ba657610b978183611069565b505f610d10565b507f00000000000000000000000000000000000000000000000000000000000000006001600160a01b0316151561091c565b634e487b7160e01b87526011600452602487fd5b634e487b7160e01b88526011600452602488fd5b90506020813d602011610db9575b81610daa60209383611069565b81010312610a4857515f6108e3565b3d9150610d9d565b6040513d88823e3d90fd5b90506020813d602011610df6575b81610de760209383611069565b81010312610a4857515f6108b8565b3d9150610dda565b6040513d87823e3d90fd5b93505050506080813d608011610e82575b81610e2760809383611069565b81010312610af1578051906020810151916001600160801b0383168303610e7e57604082015160609092015190929091907f349a5134d5729502d70a88264720af4ccfc9b5dbf3866f51a0dc4e11401951ac610831565b8680fd5b3d9150610e1a565b634e487b7160e01b8b52604160045260248bfd5b905091610702565b81936106fa565b89916106f1565b84926106e8565b610ed39060203d602011610ba657610b978183611069565b6106da565b610ef09060203d602011610ba657610b978183611069565b6106a1565b90506020813d602011610f1f575b81610f1060209383611069565b81010312610a4857515f610633565b3d9150610f03565b610f349193505f90611069565b5f915f6105b3565b6040513d5f823e3d90fd5b634e487b7160e01b5f52601160045260245ffd5b90506020813d602011610f95575b81610f7660209383611069565b81010312610a4857516001600160a01b0381168103610a48575f61054f565b3d9150610f69565b60405162461bcd60e51b8152602060048201526011602482015270105b1c9958591e4819dc98591d585d1959607a1b6044820152606490fd5b633ee5aeb560e01b5f5260045ffd5b34610a48575f366003190112610a485760206001600160801b0360035416604051908152f35b34610a48575f366003190112610a48576020600454604051908152f35b34610a48575f366003190112610a48577f00000000000000000000000000000000000000000000000000000000000000006001600160a01b03168152602090f35b90601f8019910116810190811067ffffffffffffffff82111761108b57604052565b634e487b7160e01b5f52604160045260245ffd5b5f546001600160a01b031633036110b257565b63118cdaa760e01b5f523360045260245ffd5b90600f820291808304600f1490151715610f4757565b90816020910312610a4857518015158103610a48579056fea2646970667358221220e995e3c9ea5ceed534c2be6bc7cd939d038f40063c9db52c72573f3be033ab2764736f6c634300081c0033","linkReferences":{}},"methodIdentifiers":{"CREATOR_VESTING_PERCENT()":"7a9e361c","LIQUIDITY_PERCENT()":"3ccfbabf","PLATFORM_PERCENT()":"48981d8a","TOKEN_LIQUIDITY_PERCENT()":"d412793e","creatorVestingRecipient()":"00adc389","getLiquidity()":"0910a510","getTokenId()":"010a38f5","graduationState()":"36f3dd27","handleGraduation(uint256,uint256)":"26b1a86b","isGraduated()":"9e5f2602","owner()":"8da5cb5b","platformFeeRecipient()":"eb13554f","positionManager()":"791b98bc","renounceOwnership()":"715018a6","token()":"fc0c546a","transferOwnership(address)":"f2fde38b","uniswapFactory()":"8bdb2afa","uniswapPool()":"bdd3d825","wldToken()":"9be3783d"},"id":12}