{"abi":[{"type":"constructor","inputs":[],"stateMutability":"nonpayable"},{"type":"function","name":"setValue","inputs":[{"name":"_value","type":"uint256","internalType":"uint256"}],"outputs":[],"stateMutability":"nonpayable"},{"type":"function","name":"value","inputs":[],"outputs":[{"name":"","type":"uint256","internalType":"uint256"}],"stateMutability":"view"}],"bytecode":{"object":"0x60808060405234601757602a5f5560969081601c8239f35b5f80fdfe60808060405260043610156011575f80fd5b5f3560e01c9081633fa4f2451460495750635524107714602f575f80fd5b3460455760203660031901126045576004355f55005b5f80fd5b346045575f3660031901126045576020905f548152f3fea2646970667358221220368d9105c6009e9e26b914c999d381538d65f45998f7caa396bc19ef96a142a364736f6c634300081c0033","linkReferences":{}},"methodIdentifiers":{"setValue(uint256)":"55241077","value()":"3fa4f245"},"id":15}