{"abi":[{"type":"function","name":"message","inputs":[],"outputs":[{"name":"","type":"string","internalType":"string"}],"stateMutability":"view"}],"bytecode":{"object":"0x6080806040523460b9575f54600181811c9116801560b0575b6020821014609c57601f81116058575b507f48656c6c6f2c20576f726c64210000000000000000000000000000000000001a5f5561018f90816100be8239f35b5f8052601f0160051c7f290decd9548b62a8d60345a988386fc84ba6bc95484008f6362f93160ef3e563908101905b818110609257506028565b5f81556001016087565b634e487b7160e01b5f52602260045260245ffd5b90607f16906018565b5f80fdfe6080600436101561000e575f80fd5b5f3560e01c63e21f37ce14610021575f80fd5b34610155575f366003190112610155575f5f54908160011c6001831692831561014b575b60208210841461013757818552602085019390811561011e57506001146100ca575b50829003601f01601f191682019167ffffffffffffffff8311818410176100b6576040918391828452602083525180918160208501528484015e5f828201840152601f01601f19168101030190f35b634e487b7160e01b5f52604160045260245ffd5b90505f80527f290decd9548b62a8d60345a988386fc84ba6bc95484008f6362f93160ef3e5635f905b8282106101085750602091508301015f610067565b60018160209254838589010152019101906100f3565b60ff1916845250151560051b830160200190505f610067565b634e487b7160e01b5f52602260045260245ffd5b90607f1690610045565b5f80fdfea2646970667358221220a7a8c6ba4862844840b7532ce4791fc7b0df76e3498b018260ff54e99b02f3e564736f6c634300081c0033","linkReferences":{}},"methodIdentifiers":{"message()":"e21f37ce"},"id":13}