{"abi":[{"type":"constructor","inputs":[{"name":"_wldToken","type":"address","internalType":"address"},{"name":"_worldId","type":"address","internalType":"address"}],"stateMutability":"nonpayable"},{"type":"function","name":"MAX_CREATION_FEE","inputs":[],"outputs":[{"name":"","type":"uint256","internalType":"uint256"}],"stateMutability":"view"},{"type":"function","name":"createToken","inputs":[{"name":"name","type":"string","internalType":"string"},{"name":"symbol","type":"string","internalType":"string"},{"name":"initialPrice","type":"uint256","internalType":"uint256"},{"name":"maxSupply","type":"uint256","internalType":"uint256"},{"name":"worldIdRoot","type":"uint256","internalType":"uint256"},{"name":"worldIdExternalNullifier","type":"uint256","internalType":"uint256"}],"outputs":[{"name":"token","type":"address","internalType":"address"}],"stateMutability":"payable"},{"type":"function","name":"creationFee","inputs":[],"outputs":[{"name":"","type":"uint256","internalType":"uint256"}],"stateMutability":"view"},{"type":"function","name":"getToken","inputs":[{"name":"tokenId","type":"uint256","internalType":"uint256"}],"outputs":[{"name":"","type":"address","internalType":"address"}],"stateMutability":"view"},{"type":"function","name":"getTokenCount","inputs":[],"outputs":[{"name":"","type":"uint256","internalType":"uint256"}],"stateMutability":"view"},{"type":"function","name":"getTokenCreator","inputs":[{"name":"token","type":"address","internalType":"address"}],"outputs":[{"name":"","type":"address","internalType":"address"}],"stateMutability":"view"},{"type":"function","name":"isToken","inputs":[{"name":"","type":"address","internalType":"address"}],"outputs":[{"name":"","type":"bool","internalType":"bool"}],"stateMutability":"view"},{"type":"function","name":"isTokenCreated","inputs":[{"name":"token","type":"address","internalType":"address"}],"outputs":[{"name":"","type":"bool","internalType":"bool"}],"stateMutability":"view"},{"type":"function","name":"owner","inputs":[],"outputs":[{"name":"","type":"address","internalType":"address"}],"stateMutability":"view"},{"type":"function","name":"renounceOwnership","inputs":[],"outputs":[],"stateMutability":"nonpayable"},{"type":"function","name":"setCreationFee","inputs":[{"name":"newFee","type":"uint256","internalType":"uint256"}],"outputs":[],"stateMutability":"nonpayable"},{"type":"function","name":"tokenCount","inputs":[],"outputs":[{"name":"","type":"uint256","internalType":"uint256"}],"stateMutability":"view"},{"type":"function","name":"tokenCreators","inputs":[{"name":"","type":"address","internalType":"address"}],"outputs":[{"name":"","type":"address","internalType":"address"}],"stateMutability":"view"},{"type":"function","name":"tokens","inputs":[{"name":"","type":"uint256","internalType":"uint256"}],"outputs":[{"name":"","type":"address","internalType":"address"}],"stateMutability":"view"},{"type":"function","name":"transferOwnership","inputs":[{"name":"newOwner","type":"address","internalType":"address"}],"outputs":[],"stateMutability":"nonpayable"},{"type":"function","name":"withdrawFees","inputs":[],"outputs":[],"stateMutability":"nonpayable"},{"type":"function","name":"wldToken","inputs":[],"outputs":[{"name":"","type":"address","internalType":"address"}],"stateMutability":"view"},{"type":"function","name":"worldId","inputs":[],"outputs":[{"name":"","type":"address","internalType":"address"}],"stateMutability":"view"},{"type":"event","name":"CreationFeeUpdated","inputs":[{"name":"oldFee","type":"uint256","indexed":false,"internalType":"uint256"},{"name":"newFee","type":"uint256","indexed":false,"internalType":"uint256"}],"anonymous":false},{"type":"event","name":"OwnershipTransferred","inputs":[{"name":"previousOwner","type":"address","indexed":true,"internalType":"address"},{"name":"newOwner","type":"address","indexed":true,"internalType":"address"}],"anonymous":false},{"type":"event","name":"TokenCreated","inputs":[{"name":"tokenId","type":"uint256","indexed":true,"internalType":"uint256"},{"name":"token","type":"address","indexed":true,"internalType":"address"},{"name":"creator","type":"address","indexed":true,"internalType":"address"},{"name":"name","type":"string","indexed":false,"internalType":"string"},{"name":"symbol","type":"string","indexed":false,"internalType":"string"},{"name":"initialPrice","type":"uint256","indexed":false,"internalType":"uint256"},{"name":"maxSupply","type":"uint256","indexed":false,"internalType":"uint256"}],"anonymous":false},{"type":"error","name":"OwnableInvalidOwner","inputs":[{"name":"owner","type":"address","internalType":"address"}]},{"type":"error","name":"OwnableUnauthorizedAccount","inputs":[{"name":"account","type":"address","internalType":"address"}]},{"type":"error","name":"ReentrancyGuardReentrantCall","inputs":[]}],"bytecode":{"object":"0x60c0346100f557601f61202f38819003918201601f19168301916001600160401b038311848410176100f95780849260409485528339810103126100f557610052602061004b8361010d565b920161010d565b33156100e2575f8054336001600160a01b0319821681178355604051949290916001600160a01b0316907f8be0079c531659141344cd1fd0a4f28419497f9722a3daafe3b4186f6b6457e09080a36001805560805260a05267016345785d8a0000600355611f0d908161012282396080518181816101b801526106e0015260a0518181816101e0015261076d0152f35b631e4fbdf760e01b5f525f60045260245ffd5b5f80fd5b634e487b7160e01b5f52604160045260245ffd5b51906001600160a01b03821682036100f55756fe6080806040526004361015610012575f80fd5b5f3560e01c90816319f37361146108ca57508063476343ee146107f35780634f64b2be14610539578063715018a61461079c578063753e9ef01461075857806378a89567146106ae57806387cb5f94146107365780638da5cb5b1461070f5780639be3783d146106cb5780639f181b5e146106ae578063a0c0f7201461066d578063b7d86225146105cc578063c78418b914610588578063ce7e8de814610588578063dce0b4e41461056b578063e4b50cb814610539578063f2fde38b146104b05763f5c99ae9146100e2575f80fd5b60c03660031901126104ac5760043567ffffffffffffffff81116104ac5761010e90369060040161094a565b60243567ffffffffffffffff81116104ac5761012e90369060040161094a565b9060443560643560026001541461049d576002600155825115610462578351156104255781156103d45780156103855760035434106103405760405161150780820182811067ffffffffffffffff82111761032c5782916109d1833961010081526101ae6101a0610100830188610986565b828103602084015288610986565b6001600160a01b037f0000000000000000000000000000000000000000000000000000000000000000811660408401527f00000000000000000000000000000000000000000000000000000000000000001660608301526080820186905260a0820185905260843560c083015260a43560e09092019190915203905ff093841561032157600280545f90815260046020908152604080832080546001600160a01b03199081166001600160a01b03909b169a8b1790915589845260058352818420805460ff19166001179055600690925291829020805490911633179055905490516080808252919695869488947fdb6457e8c4fdacd3c40ccb8337a3f7e8b23e57fc38f972b62aaa8522169d695a9491926102df926102d19190860190610986565b908482036020860152610986565b95604083015260608201528033950390a45f19821461030d5760016020920160025560018055604051908152f35b634e487b7160e01b5f52601160045260245ffd5b6040513d5f823e3d90fd5b634e487b7160e01b5f52604160045260245ffd5b60405162461bcd60e51b815260206004820152601960248201527f496e73756666696369656e74206372656174696f6e20666565000000000000006044820152606490fd5b60405162461bcd60e51b815260206004820152602160248201527f4d617820737570706c79206d7573742062652067726561746572207468616e206044820152600360fc1b6064820152608490fd5b60405162461bcd60e51b8152602060048201526024808201527f496e697469616c207072696365206d75737420626520677265617465722074686044820152630616e20360e41b6064820152608490fd5b60405162461bcd60e51b8152602060048201526015602482015274151bdad95b881cde5b589bdb081c995c5d5a5c9959605a1b6044820152606490fd5b60405162461bcd60e51b8152602060048201526013602482015272151bdad95b881b985b59481c995c5d5a5c9959606a1b6044820152606490fd5b633ee5aeb560e01b5f5260045ffd5b5f80fd5b346104ac5760203660031901126104ac576004356001600160a01b038116908190036104ac576104de6109aa565b8015610526575f80546001600160a01b03198116831782556001600160a01b0316907f8be0079c531659141344cd1fd0a4f28419497f9722a3daafe3b4186f6b6457e09080a3005b631e4fbdf760e01b5f525f60045260245ffd5b346104ac5760203660031901126104ac576004355f526004602052602060018060a01b0360405f205416604051908152f35b346104ac575f3660031901126104ac576020600354604051908152f35b346104ac5760203660031901126104ac576004356001600160a01b038116908190036104ac575f526006602052602060018060a01b0360405f205416604051908152f35b346104ac5760203660031901126104ac576004356105e86109aa565b670de0b6b3a764000081116106305760407f5de302eeb1c80d4fb0c0953b692353f09ddf431411b8eb2034d5e8576956191291600354908060035582519182526020820152a1005b60405162461bcd60e51b8152602060048201526015602482015274086e4cac2e8d2dedc40cccaca40e8dede40d0d2ced605b1b6044820152606490fd5b346104ac5760203660031901126104ac576004356001600160a01b038116908190036104ac575f526005602052602060ff60405f2054166040519015158152f35b346104ac575f3660031901126104ac576020600254604051908152f35b346104ac575f3660031901126104ac576040517f00000000000000000000000000000000000000000000000000000000000000006001600160a01b03168152602090f35b346104ac575f3660031901126104ac575f546040516001600160a01b039091168152602090f35b346104ac575f3660031901126104ac576020604051670de0b6b3a76400008152f35b346104ac575f3660031901126104ac576040517f00000000000000000000000000000000000000000000000000000000000000006001600160a01b03168152602090f35b346104ac575f3660031901126104ac576107b46109aa565b5f80546001600160a01b0319811682556001600160a01b03167f8be0079c531659141344cd1fd0a4f28419497f9722a3daafe3b4186f6b6457e08280a3005b346104ac575f3660031901126104ac5761080b6109aa565b47801561088f575f8080809360018060a01b038254165af13d1561088a573d61083b6108368261092e565b610908565b9081525f60203d92013e5b1561084d57005b60405162461bcd60e51b8152602060048201526015602482015274119959481dda5d1a191c985dd85b0819985a5b1959605a1b6044820152606490fd5b610846565b60405162461bcd60e51b81526020600482015260136024820152724e6f206665657320746f20776974686472617760681b6044820152606490fd5b346104ac5760203660031901126104ac576004356001600160a01b03811691908290036104ac576020915f526005825260ff60405f20541615158152f35b6040519190601f01601f1916820167ffffffffffffffff81118382101761032c57604052565b67ffffffffffffffff811161032c57601f01601f191660200190565b81601f820112156104ac578035906109646108368361092e565b92828452602083830101116104ac57815f926020809301838601378301015290565b805180835260209291819084018484015e5f828201840152601f01601f1916010190565b5f546001600160a01b031633036109bd57565b63118cdaa760e01b5f523360045260245ffdfe60c060405234610400576115078038038061001981610404565b9283398101610100828203126104005781516001600160401b0381116104005781610045918401610429565b602083015190916001600160401b03821161040057610065918401610429565b916100726040820161047a565b9261007f6060830161047a565b60808301519060a08401519260e060c08601519501519580519060018060401b0382116103035760035490600182811c921680156103f6575b60208310146102e55781601f849311610388575b50602090601f8311600114610322575f92610317575b50508160011b915f199060031b1c1916176003555b8051906001600160401b0382116103035760045490600182811c921680156102f9575b60208310146102e55781601f849311610277575b50602090601f8311600114610211575f92610206575b50508160011b915f199060031b1c1916176004555b33156101f35760058054336001600160a01b0319821681179092556040519791906001600160a01b03167f8be0079c531659141344cd1fd0a4f28419497f9722a3daafe3b4186f6b6457e05f80a3600160065560a0526001600160a01b0316608052600755600955600b55600c55611078908161048f823960805181818161023a0152610aad015260a0518181816101f3015261093d0152f35b631e4fbdf760e01b5f525f60045260245ffd5b015190505f80610144565b60045f9081528281209350601f198516905b81811061025f5750908460019594939210610247575b505050811b01600455610159565b01515f1960f88460031b161c191690555f8080610239565b92936020600181928786015181550195019301610223565b60045f529091507f8a35acfbc15ff81a39ae7d344fd709f28e8600b4aa8c65c6b64bfe7fe36bd19b601f840160051c810191602085106102db575b90601f859493920160051c01905b8181106102cd575061012e565b5f81558493506001016102c0565b90915081906102b2565b634e487b7160e01b5f52602260045260245ffd5b91607f169161011a565b634e487b7160e01b5f52604160045260245ffd5b015190505f806100e2565b60035f9081528281209350601f198516905b8181106103705750908460019594939210610358575b505050811b016003556100f7565b01515f1960f88460031b161c191690555f808061034a565b92936020600181928786015181550195019301610334565b60035f529091507fc2575a0e9e593c00f959f8c92f12db2869c3395a3b0502d05e2516446f71f85b601f840160051c810191602085106103ec575b90601f859493920160051c01905b8181106103de57506100cc565b5f81558493506001016103d1565b90915081906103c3565b91607f16916100b8565b5f80fd5b6040519190601f01601f191682016001600160401b0381118382101761030357604052565b81601f82011215610400578051906001600160401b03821161030357610458601f8301601f1916602001610404565b928284526020838301011161040057815f9260208093018386015e8301015290565b51906001600160a01b03821682036104005756fe6080806040526004361015610012575f80fd5b5f905f3560e01c90816306fdde0314610d5f57508063094d7a2e14610d24578063095ea7b314610ca25780630ab216621461090b57806318160ddd14610c8557806323b872dd14610ba6578063313ce56714610b8b5780633161799414610b6e57806370a0823114610b37578063715018a614610adc578063753e9ef014610a985780638da5cb5b14610a7057806390118fb41461077f57806395d89b411461096c5780639be3783d146109285780639d1b464a1461090b5780639e5f2602146108e9578063a9059cbb146108b8578063aad2406114610889578063b14647cc14610868578063bab2185e1461084b578063c764263a14610829578063d5abeb011461080c578063dd62ed3e146107bc578063e73effd01461077f578063f0724d2314610762578063f2fde38b146106dc578063fcfc0c09146106b95763fe3f5ce21461015d575f80fd5b3461054b5761014036600319011261054b57600435602435366101441161054b576002600654146106aa57600260065561019c60ff600a541615610f11565b811561066557805f52600d60205260ff60405f20541661062057335f52600e60205260ff60405f2054166105d0576040516323b872dd60e01b8152336004820152306024820152604481018390526020816064815f7f00000000000000000000000000000000000000000000000000000000000000006001600160a01b03165af19081156105c5575f9161058a575b501561054f5760018060a01b037f00000000000000000000000000000000000000000000000000000000000000001660405160208101903360601b82523060601b603482015260288152610280604882610e6d565b519020600b54600c5492803b1561054b575f92836101849260405196879586946301aa650960e51b8652600486015260248501528860448501526064840152610100604460848501375af19081610536575b506103155760405162461bcd60e51b81526020600482015260166024820152752bb7b9363224a21d1024b73b30b634b210383937b7b360511b6044820152606490fd5b6040518181527f3ce3861f233f7cc26caa8426b30e97a5b7afabb23448fb55227ab3186106fa0760203392a28252600d60205260408220600160ff19825416179055338252600e60205260408220600160ff1982541617905561037a60075482610ea3565b61038681600254610f51565b600954106104fb5733156104e7576103a081600254610f51565b6002553383528260205260408320818154019055604051818152837fddf252ad1be2c89b69c2b068fc378daa952ba7f163c4a11628f55a4df523b3ef60203393a36103ed82600854610f51565b91826008556007548281028181048414821517156104d357906103e861041c920490600182106104ca57610f51565b918260075560405191825260208201528160408201527f0d1a0d5e3d583a0e92588799dd06e50fd78c07daf05f0cc06d7b848b1ca445f160603392a2683635c9adc5dea00000821015610473575b82600160065580f35b6001600a5461048560ff821615610f11565b60ff191617600a55811561046a577facfdce92da76539f5af2efc3aa76d42a7a92af4d723a23d144f58fdf1472921e9160409182519182526020820152a15f8061046a565b60019150610f51565b634e487b7160e01b86526011600452602486fd5b63ec442f0560e01b83526004839052602483fd5b60405162461bcd60e51b815260206004820152601360248201527213585e081cdd5c1c1b1e48195e18d959591959606a1b6044820152606490fd5b6105439194505f90610e6d565b5f925f6102d2565b5f80fd5b60405162461bcd60e51b815260206004820152601360248201527215d311081d1c985b9cd9995c8819985a5b1959606a1b6044820152606490fd5b90506020813d6020116105bd575b816105a560209383610e6d565b8101031261054b5751801515810361054b575f61022b565b3d9150610598565b6040513d5f823e3d90fd5b60405162461bcd60e51b815260206004820152602260248201527f576f726c6449443a206164647265737320616c72656164792070757263686173604482015261195960f21b6064820152608490fd5b60405162461bcd60e51b815260206004820152601f60248201527f576f726c6449443a206e756c6c696669657220616c72656164792075736564006044820152606490fd5b60405162461bcd60e51b815260206004820152601d60248201527f416d6f756e74206d7573742062652067726561746572207468616e20300000006044820152606490fd5b633ee5aeb560e01b5f5260045ffd5b3461054b575f36600319011261054b576020604051683635c9adc5dea000008152f35b3461054b57602036600319011261054b576106f5610e41565b6106fd61101b565b6001600160a01b0316801561074f57600580546001600160a01b0319811683179091556001600160a01b03167f8be0079c531659141344cd1fd0a4f28419497f9722a3daafe3b4186f6b6457e05f80a3005b631e4fbdf760e01b5f525f60045260245ffd5b3461054b575f36600319011261054b576020600c54604051908152f35b3461054b57602036600319011261054b576001600160a01b036107a0610e41565b165f52600e602052602060ff60405f2054166040519015158152f35b3461054b57604036600319011261054b576107d5610e41565b6107dd610e57565b6001600160a01b039182165f908152600160209081526040808320949093168252928352819020549051908152f35b3461054b575f36600319011261054b576020600954604051908152f35b3461054b575f36600319011261054b576020610843610ec1565b604051908152f35b3461054b575f36600319011261054b576020600854604051908152f35b3461054b57602036600319011261054b576020610843600754600435610ea3565b3461054b57602036600319011261054b576004355f52600d602052602060ff60405f2054166040519015158152f35b3461054b57604036600319011261054b576108de6108d4610e41565b6024359033610f5e565b602060405160018152f35b3461054b575f36600319011261054b57602060ff600a54166040519015158152f35b3461054b575f36600319011261054b576020600754604051908152f35b3461054b575f36600319011261054b576040517f00000000000000000000000000000000000000000000000000000000000000006001600160a01b03168152602090f35b3461054b575f36600319011261054b576040515f6004548060011c90600181168015610a66575b602083108114610a5257828552908115610a2e57506001146109d0575b6109cc836109c081850382610e6d565b60405191829182610e17565b0390f35b91905060045f527f8a35acfbc15ff81a39ae7d344fd709f28e8600b4aa8c65c6b64bfe7fe36bd19b915f905b808210610a14575090915081016020016109c06109b0565b9192600181602092548385880101520191019092916109fc565b60ff191660208086019190915291151560051b840190910191506109c090506109b0565b634e487b7160e01b5f52602260045260245ffd5b91607f1691610993565b3461054b575f36600319011261054b576005546040516001600160a01b039091168152602090f35b3461054b575f36600319011261054b576040517f00000000000000000000000000000000000000000000000000000000000000006001600160a01b03168152602090f35b3461054b575f36600319011261054b57610af461101b565b600580546001600160a01b031981169091555f906001600160a01b03167f8be0079c531659141344cd1fd0a4f28419497f9722a3daafe3b4186f6b6457e08280a3005b3461054b57602036600319011261054b576001600160a01b03610b58610e41565b165f525f602052602060405f2054604051908152f35b3461054b575f36600319011261054b576020600b54604051908152f35b3461054b575f36600319011261054b57602060405160128152f35b3461054b57606036600319011261054b57610bbf610e41565b610bc7610e57565b6001600160a01b0382165f818152600160209081526040808320338452909152902054909260443592915f198110610c05575b506108de9350610f5e565b838110610c6a578415610c57573315610c44576108de945f52600160205260405f2060018060a01b0333165f526020528360405f209103905584610bfa565b634a1406b160e11b5f525f60045260245ffd5b63e602df0560e01b5f525f60045260245ffd5b8390637dc7a0d960e11b5f523360045260245260445260645ffd5b3461054b575f36600319011261054b576020600254604051908152f35b3461054b57604036600319011261054b57610cbb610e41565b602435903315610c57576001600160a01b0316908115610c4457335f52600160205260405f20825f526020528060405f20556040519081527f8c5be1e5ebec7d5bd14f71427d1e84f3dd0314c0f7b2291e5b200ac8c7c3b92560203392a3602060405160018152f35b3461054b575f36600319011261054b57608060075460085460025460ff600a5416916040519384526020840152604083015215156060820152f35b3461054b575f36600319011261054b575f6003548060011c90600181168015610e0d575b602083108114610a5257828552908115610a2e5750600114610daf576109cc836109c081850382610e6d565b91905060035f527fc2575a0e9e593c00f959f8c92f12db2869c3395a3b0502d05e2516446f71f85b915f905b808210610df3575090915081016020016109c06109b0565b919260018160209254838588010152019101909291610ddb565b91607f1691610d83565b602060409281835280519182918282860152018484015e5f828201840152601f01601f1916010190565b600435906001600160a01b038216820361054b57565b602435906001600160a01b038216820361054b57565b90601f8019910116810190811067ffffffffffffffff821117610e8f57604052565b634e487b7160e01b5f52604160045260245ffd5b8115610ead570490565b634e487b7160e01b5f52601260045260245ffd5b600854683635c9adc5dea00000811015610f0b57606481029080820460641490151715610ef757683635c9adc5dea00000900490565b634e487b7160e01b5f52601160045260245ffd5b50606490565b15610f1857565b60405162461bcd60e51b8152602060048201526011602482015270105b1c9958591e4819dc98591d585d1959607a1b6044820152606490fd5b91908201809211610ef757565b6001600160a01b0316908115611008576001600160a01b0316918215610ff557815f525f60205260405f2054818110610fdc57817fddf252ad1be2c89b69c2b068fc378daa952ba7f163c4a11628f55a4df523b3ef92602092855f525f84520360405f2055845f525f825260405f20818154019055604051908152a3565b8263391434e360e21b5f5260045260245260445260645ffd5b63ec442f0560e01b5f525f60045260245ffd5b634b637e8f60e11b5f525f60045260245ffd5b6005546001600160a01b0316330361102f57565b63118cdaa760e01b5f523360045260245ffdfea2646970667358221220b169493f2453b9ef0dcce09e2399036ffa4699a71a61bd178d52cb1e753d45aa64736f6c634300081c0033a26469706673582212202f216c706f405950ec7cf01cf3b1170fa6ce42beb8e3980532efcdbc40d65aac64736f6c634300081c0033","linkReferences":{}},"methodIdentifiers":{"MAX_CREATION_FEE()":"87cb5f94","createToken(string,string,uint256,uint256,uint256,uint256)":"f5c99ae9","creationFee()":"dce0b4e4","getToken(uint256)":"e4b50cb8","getTokenCount()":"78a89567","getTokenCreator(address)":"c78418b9","isToken(address)":"19f37361","isTokenCreated(address)":"a0c0f720","owner()":"8da5cb5b","renounceOwnership()":"715018a6","setCreationFee(uint256)":"b7d86225","tokenCount()":"9f181b5e","tokenCreators(address)":"ce7e8de8","tokens(uint256)":"4f64b2be","transferOwnership(address)":"f2fde38b","withdrawFees()":"476343ee","wldToken()":"9be3783d","worldId()":"753e9ef0"},"id":16}