{"abi":[{"type":"constructor","inputs":[{"name":"name","type":"string","internalType":"string"},{"name":"symbol","type":"string","internalType":"string"},{"name":"_wldToken","type":"address","internalType":"address"},{"name":"_initialPrice","type":"uint256","internalType":"uint256"},{"name":"_maxSupply","type":"uint256","internalType":"uint256"}],"stateMutability":"nonpayable"},{"type":"function","name":"GRADUATION_THRESHOLD","inputs":[],"outputs":[{"name":"","type":"uint256","internalType":"uint256"}],"stateMutability":"view"},{"type":"function","name":"allowance","inputs":[{"name":"owner","type":"address","internalType":"address"},{"name":"spender","type":"address","internalType":"address"}],"outputs":[{"name":"","type":"uint256","internalType":"uint256"}],"stateMutability":"view"},{"type":"function","name":"approve","inputs":[{"name":"spender","type":"address","internalType":"address"},{"name":"value","type":"uint256","internalType":"uint256"}],"outputs":[{"name":"","type":"bool","internalType":"bool"}],"stateMutability":"nonpayable"},{"type":"function","name":"balanceOf","inputs":[{"name":"account","type":"address","internalType":"address"}],"outputs":[{"name":"","type":"uint256","internalType":"uint256"}],"stateMutability":"view"},{"type":"function","name":"buy","inputs":[{"name":"wldAmount","type":"uint256","internalType":"uint256"}],"outputs":[],"stateMutability":"nonpayable"},{"type":"function","name":"currentPrice","inputs":[],"outputs":[{"name":"","type":"uint256","internalType":"uint256"}],"stateMutability":"view"},{"type":"function","name":"decimals","inputs":[],"outputs":[{"name":"","type":"uint8","internalType":"uint8"}],"stateMutability":"view"},{"type":"function","name":"getBondingCurveState","inputs":[],"outputs":[{"name":"","type":"uint256","internalType":"uint256"},{"name":"","type":"uint256","internalType":"uint256"},{"name":"","type":"uint256","internalType":"uint256"},{"name":"","type":"bool","internalType":"bool"}],"stateMutability":"view"},{"type":"function","name":"getGraduationProgress","inputs":[],"outputs":[{"name":"","type":"uint256","internalType":"uint256"}],"stateMutability":"view"},{"type":"function","name":"isGraduated","inputs":[],"outputs":[{"name":"","type":"bool","internalType":"bool"}],"stateMutability":"view"},{"type":"function","name":"maxSupply","inputs":[],"outputs":[{"name":"","type":"uint256","internalType":"uint256"}],"stateMutability":"view"},{"type":"function","name":"name","inputs":[],"outputs":[{"name":"","type":"string","internalType":"string"}],"stateMutability":"view"},{"type":"function","name":"owner","inputs":[],"outputs":[{"name":"","type":"address","internalType":"address"}],"stateMutability":"view"},{"type":"function","name":"renounceOwnership","inputs":[],"outputs":[],"stateMutability":"nonpayable"},{"type":"function","name":"symbol","inputs":[],"outputs":[{"name":"","type":"string","internalType":"string"}],"stateMutability":"view"},{"type":"function","name":"totalRaisedWLD","inputs":[],"outputs":[{"name":"","type":"uint256","internalType":"uint256"}],"stateMutability":"view"},{"type":"function","name":"totalSupply","inputs":[],"outputs":[{"name":"","type":"uint256","internalType":"uint256"}],"stateMutability":"view"},{"type":"function","name":"transfer","inputs":[{"name":"to","type":"address","internalType":"address"},{"name":"value","type":"uint256","internalType":"uint256"}],"outputs":[{"name":"","type":"bool","internalType":"bool"}],"stateMutability":"nonpayable"},{"type":"function","name":"transferFrom","inputs":[{"name":"from","type":"address","internalType":"address"},{"name":"to","type":"address","internalType":"address"},{"name":"value","type":"uint256","internalType":"uint256"}],"outputs":[{"name":"","type":"bool","internalType":"bool"}],"stateMutability":"nonpayable"},{"type":"function","name":"transferOwnership","inputs":[{"name":"newOwner","type":"address","internalType":"address"}],"outputs":[],"stateMutability":"nonpayable"},{"type":"function","name":"wldToken","inputs":[],"outputs":[{"name":"","type":"address","internalType":"address"}],"stateMutability":"view"},{"type":"event","name":"Approval","inputs":[{"name":"owner","type":"address","indexed":true,"internalType":"address"},{"name":"spender","type":"address","indexed":true,"internalType":"address"},{"name":"value","type":"uint256","indexed":false,"internalType":"uint256"}],"anonymous":false},{"type":"event","name":"Graduated","inputs":[{"name":"totalRaisedWLD","type":"uint256","indexed":false,"internalType":"uint256"},{"name":"finalPrice","type":"uint256","indexed":false,"internalType":"uint256"}],"anonymous":false},{"type":"event","name":"OwnershipTransferred","inputs":[{"name":"previousOwner","type":"address","indexed":true,"internalType":"address"},{"name":"newOwner","type":"address","indexed":true,"internalType":"address"}],"anonymous":false},{"type":"event","name":"TokensPurchased","inputs":[{"name":"buyer","type":"address","indexed":true,"internalType":"address"},{"name":"wldAmount","type":"uint256","indexed":false,"internalType":"uint256"},{"name":"tokenAmount","type":"uint256","indexed":false,"internalType":"uint256"},{"name":"newPrice","type":"uint256","indexed":false,"internalType":"uint256"}],"anonymous":false},{"type":"event","name":"Transfer","inputs":[{"name":"from","type":"address","indexed":true,"internalType":"address"},{"name":"to","type":"address","indexed":true,"internalType":"address"},{"name":"value","type":"uint256","indexed":false,"internalType":"uint256"}],"anonymous":false},{"type":"error","name":"ERC20InsufficientAllowance","inputs":[{"name":"spender","type":"address","internalType":"address"},{"name":"allowance","type":"uint256","internalType":"uint256"},{"name":"needed","type":"uint256","internalType":"uint256"}]},{"type":"error","name":"ERC20InsufficientBalance","inputs":[{"name":"sender","type":"address","internalType":"address"},{"name":"balance","type":"uint256","internalType":"uint256"},{"name":"needed","type":"uint256","internalType":"uint256"}]},{"type":"error","name":"ERC20InvalidApprover","inputs":[{"name":"approver","type":"address","internalType":"address"}]},{"type":"error","name":"ERC20InvalidReceiver","inputs":[{"name":"receiver","type":"address","internalType":"address"}]},{"type":"error","name":"ERC20InvalidSender","inputs":[{"name":"sender","type":"address","internalType":"address"}]},{"type":"error","name":"ERC20InvalidSpender","inputs":[{"name":"spender","type":"address","internalType":"address"}]},{"type":"error","name":"OwnableInvalidOwner","inputs":[{"name":"owner","type":"address","internalType":"address"}]},{"type":"error","name":"OwnableUnauthorizedAccount","inputs":[{"name":"account","type":"address","internalType":"address"}]},{"type":"error","name":"ReentrancyGuardReentrantCall","inputs":[]}],"bytecode":{"object":"0x60a0604052346103c7576110dc80380380610019816103cb565b92833981019060a0818303126103c75780516001600160401b0381116103c757826100459183016103f0565b602082015190926001600160401b0382116103c7576100659183016103f0565b6040820151909290916001600160a01b03831683036103c7576060810151608090910151825190926001600160401b0382116102ca5760035490600182811c921680156103bd575b60208310146102ac5781601f84931161034f575b50602090601f83116001146102e9575f926102de575b50508160011b915f199060031b1c1916176003555b83516001600160401b0381116102ca57600454600181811c911680156102c0575b60208210146102ac57601f8111610249575b50602094601f82116001146101e6579481929394955f926101db575b50508160011b915f199060031b1c1916176004555b33156101c85760058054336001600160a01b0319821681179092556040519491906001600160a01b03167f8be0079c531659141344cd1fd0a4f28419497f9722a3daafe3b4186f6b6457e05f80a36001600655608052600755600955610c9a9081610442823960805181818161026101526105f10152f35b631e4fbdf760e01b5f525f60045260245ffd5b015190505f8061013b565b601f1982169560045f52805f20915f5b88811061023157508360019596979810610219575b505050811b01600455610150565b01515f1960f88460031b161c191690555f808061020b565b919260206001819286850151815501940192016101f6565b60045f527f8a35acfbc15ff81a39ae7d344fd709f28e8600b4aa8c65c6b64bfe7fe36bd19b601f830160051c810191602084106102a2575b601f0160051c01905b818110610297575061011f565b5f815560010161028a565b9091508190610281565b634e487b7160e01b5f52602260045260245ffd5b90607f169061010d565b634e487b7160e01b5f52604160045260245ffd5b015190505f806100d7565b60035f9081528281209350601f198516905b818110610337575090846001959493921061031f575b505050811b016003556100ec565b01515f1960f88460031b161c191690555f8080610311565b929360206001819287860151815501950193016102fb565b60035f529091507fc2575a0e9e593c00f959f8c92f12db2869c3395a3b0502d05e2516446f71f85b601f840160051c810191602085106103b3575b90601f859493920160051c01905b8181106103a557506100c1565b5f8155849350600101610398565b909150819061038a565b91607f16916100ad565b5f80fd5b6040519190601f01601f191682016001600160401b038111838210176102ca57604052565b81601f820112156103c7578051906001600160401b0382116102ca5761041f601f8301601f19166020016103cb565b92828452602083830101116103c757815f9260208093018386015e830101529056fe6080806040526004361015610012575f80fd5b5f3560e01c90816306fdde03146109b257508063094d7a2e14610977578063095ea7b3146108f557806318160ddd146108d857806323b872dd146107f9578063313ce567146107de57806370a08231146107a7578063715018a61461074c5780638da5cb5b1461072457806395d89b41146106205780639be3783d146105dc5780639d1b464a146105bf5780639e5f26021461059d578063a9059cbb1461056c578063bab2185e1461054f578063c764263a1461052d578063d5abeb0114610510578063d96a094a14610200578063dd62ed3e146101b0578063f2fde38b1461012a5763fcfc0c0914610103575f80fd5b34610126575f366003190112610126576020604051683635c9adc5dea000008152f35b5f80fd5b3461012657602036600319011261012657610143610a94565b61014b610c3d565b6001600160a01b0316801561019d57600580546001600160a01b0319811683179091556001600160a01b03167f8be0079c531659141344cd1fd0a4f28419497f9722a3daafe3b4186f6b6457e05f80a3005b631e4fbdf760e01b5f525f60045260245ffd5b34610126576040366003190112610126576101c9610a94565b6101d1610aaa565b6001600160a01b039182165f908152600160209081526040808320949093168252928352819020549051908152f35b346101265760203660031901126101265760043560026006541461050157600260065561023260ff600a541615610b46565b80156104bc576040516323b872dd60e01b8152336004820152306024820152604481018290526020816064815f7f00000000000000000000000000000000000000000000000000000000000000006001600160a01b03165af19081156104b1575f91610476575b501561043b5760075480156104275781046102b681600254610b86565b600954106103ec5733156103d9576102d081600254610b86565b600255335f525f60205260405f208181540190556040518181525f7fddf252ad1be2c89b69c2b068fc378daa952ba7f163c4a11628f55a4df523b3ef60203393a361031d82600854610b86565b91826008556103336007546103e8840490610b86565b918260075560405191825260208201528160408201527f0d1a0d5e3d583a0e92588799dd06e50fd78c07daf05f0cc06d7b848b1ca445f160603392a2683635c9adc5dea00000821015610388575b6001600655005b7facfdce92da76539f5af2efc3aa76d42a7a92af4d723a23d144f58fdf1472921e916040916001600a546103bf60ff821615610b46565b60ff191617600a5582519182526020820152a18080610381565b63ec442f0560e01b5f525f60045260245ffd5b60405162461bcd60e51b815260206004820152601360248201527213585e081cdd5c1c1b1e48195e18d959591959606a1b6044820152606490fd5b634e487b7160e01b5f52601260045260245ffd5b60405162461bcd60e51b815260206004820152601360248201527215d311081d1c985b9cd9995c8819985a5b1959606a1b6044820152606490fd5b90506020813d6020116104a9575b8161049160209383610ac0565b81010312610126575180151581036101265782610299565b3d9150610484565b6040513d5f823e3d90fd5b60405162461bcd60e51b815260206004820152601d60248201527f416d6f756e74206d7573742062652067726561746572207468616e20300000006044820152606490fd5b633ee5aeb560e01b5f5260045ffd5b34610126575f366003190112610126576020600954604051908152f35b34610126575f366003190112610126576020610547610af6565b604051908152f35b34610126575f366003190112610126576020600854604051908152f35b3461012657604036600319011261012657610592610588610a94565b6024359033610b93565b602060405160018152f35b34610126575f36600319011261012657602060ff600a54166040519015158152f35b34610126575f366003190112610126576020600754604051908152f35b34610126575f366003190112610126576040517f00000000000000000000000000000000000000000000000000000000000000006001600160a01b03168152602090f35b34610126575f366003190112610126576040515f6004548060011c9060018116801561071a575b602083108114610706578285529081156106e25750600114610684575b6106808361067481850382610ac0565b60405191829182610a6a565b0390f35b91905060045f527f8a35acfbc15ff81a39ae7d344fd709f28e8600b4aa8c65c6b64bfe7fe36bd19b915f905b8082106106c857509091508101602001610674610664565b9192600181602092548385880101520191019092916106b0565b60ff191660208086019190915291151560051b840190910191506106749050610664565b634e487b7160e01b5f52602260045260245ffd5b91607f1691610647565b34610126575f366003190112610126576005546040516001600160a01b039091168152602090f35b34610126575f36600319011261012657610764610c3d565b600580546001600160a01b031981169091555f906001600160a01b03167f8be0079c531659141344cd1fd0a4f28419497f9722a3daafe3b4186f6b6457e08280a3005b34610126576020366003190112610126576001600160a01b036107c8610a94565b165f525f602052602060405f2054604051908152f35b34610126575f36600319011261012657602060405160128152f35b3461012657606036600319011261012657610812610a94565b61081a610aaa565b6001600160a01b0382165f818152600160209081526040808320338452909152902054909260443592915f198110610858575b506105929350610b93565b8381106108bd5784156108aa57331561089757610592945f52600160205260405f2060018060a01b0333165f526020528360405f20910390558461084d565b634a1406b160e11b5f525f60045260245ffd5b63e602df0560e01b5f525f60045260245ffd5b8390637dc7a0d960e11b5f523360045260245260445260645ffd5b34610126575f366003190112610126576020600254604051908152f35b346101265760403660031901126101265761090e610a94565b6024359033156108aa576001600160a01b031690811561089757335f52600160205260405f20825f526020528060405f20556040519081527f8c5be1e5ebec7d5bd14f71427d1e84f3dd0314c0f7b2291e5b200ac8c7c3b92560203392a3602060405160018152f35b34610126575f36600319011261012657608060075460085460025460ff600a5416916040519384526020840152604083015215156060820152f35b34610126575f366003190112610126575f6003548060011c90600181168015610a60575b602083108114610706578285529081156106e25750600114610a02576106808361067481850382610ac0565b91905060035f527fc2575a0e9e593c00f959f8c92f12db2869c3395a3b0502d05e2516446f71f85b915f905b808210610a4657509091508101602001610674610664565b919260018160209254838588010152019101909291610a2e565b91607f16916109d6565b602060409281835280519182918282860152018484015e5f828201840152601f01601f1916010190565b600435906001600160a01b038216820361012657565b602435906001600160a01b038216820361012657565b90601f8019910116810190811067ffffffffffffffff821117610ae257604052565b634e487b7160e01b5f52604160045260245ffd5b600854683635c9adc5dea00000811015610b4057606481029080820460641490151715610b2c57683635c9adc5dea00000900490565b634e487b7160e01b5f52601160045260245ffd5b50606490565b15610b4d57565b60405162461bcd60e51b8152602060048201526011602482015270105b1c9958591e4819dc98591d585d1959607a1b6044820152606490fd5b91908201809211610b2c57565b6001600160a01b0316908115610c2a576001600160a01b03169182156103d957815f525f60205260405f2054818110610c1157817fddf252ad1be2c89b69c2b068fc378daa952ba7f163c4a11628f55a4df523b3ef92602092855f525f84520360405f2055845f525f825260405f20818154019055604051908152a3565b8263391434e360e21b5f5260045260245260445260645ffd5b634b637e8f60e11b5f525f60045260245ffd5b6005546001600160a01b03163303610c5157565b63118cdaa760e01b5f523360045260245ffdfea264697066735822122022d8b39ebd61303bbc91cf76f00e6354ea0276df6656db18991712d05034cb6264736f6c634300081c0033","linkReferences":{}},"methodIdentifiers":{"GRADUATION_THRESHOLD()":"fcfc0c09","allowance(address,address)":"dd62ed3e","approve(address,uint256)":"095ea7b3","balanceOf(address)":"70a08231","buy(uint256)":"d96a094a","currentPrice()":"9d1b464a","decimals()":"313ce567","getBondingCurveState()":"094d7a2e","getGraduationProgress()":"c764263a","isGraduated()":"9e5f2602","maxSupply()":"d5abeb01","name()":"06fdde03","owner()":"8da5cb5b","renounceOwnership()":"715018a6","symbol()":"95d89b41","totalRaisedWLD()":"bab2185e","totalSupply()":"18160ddd","transfer(address,uint256)":"a9059cbb","transferFrom(address,address,uint256)":"23b872dd","transferOwnership(address)":"f2fde38b","wldToken()":"9be3783d"},"id":9}