{"abi":[{"type":"function","name":"value","inputs":[],"outputs":[{"name":"","type":"uint256","internalType":"uint256"}],"stateMutability":"view"}],"bytecode":{"object":"0x60808060405234601757602a5f5560749081601c8239f35b5f80fdfe60808060405260043610156011575f80fd5b5f3560e01c633fa4f245146023575f80fd5b34603a575f366003190112603a576020905f548152f35b5f80fdfea2646970667358221220019711e50ec92d613cfee94b71d6ed70491608db9add3bfd4ccd6861e9e1539a64736f6c634300081c0033","linkReferences":{}},"methodIdentifiers":{"value()":"3fa4f245"},"id":14}