{"abi":[{"type":"constructor","inputs":[{"name":"name","type":"string","internalType":"string"},{"name":"symbol","type":"string","internalType":"string"},{"name":"_wldToken","type":"address","internalType":"address"},{"name":"_worldId","type":"address","internalType":"address"},{"name":"_uniswapFactory","type":"address","internalType":"address"},{"name":"_positionManager","type":"address","internalType":"address"},{"name":"_platformFeeRecipient","type":"address","internalType":"address"},{"name":"_creatorVestingRecipient","type":"address","internalType":"address"},{"name":"_initialPrice","type":"uint256","internalType":"uint256"},{"name":"_maxSupply","type":"uint256","internalType":"uint256"},{"name":"_worldIdRoot","type":"uint256","internalType":"uint256"},{"name":"_worldIdGroupId","type":"uint256","internalType":"uint256"},{"name":"_worldIdExternalNullifier","type":"uint256","internalType":"uint256"}],"stateMutability":"nonpayable"},{"type":"function","name":"GRADUATION_THRESHOLD","inputs":[],"outputs":[{"name":"","type":"uint256","internalType":"uint256"}],"stateMutability":"view"},{"type":"function","name":"allowance","inputs":[{"name":"owner","type":"address","internalType":"address"},{"name":"spender","type":"address","internalType":"address"}],"outputs":[{"name":"","type":"uint256","internalType":"uint256"}],"stateMutability":"view"},{"type":"function","name":"approve","inputs":[{"name":"spender","type":"address","internalType":"address"},{"name":"value","type":"uint256","internalType":"uint256"}],"outputs":[{"name":"","type":"bool","internalType":"bool"}],"stateMutability":"nonpayable"},{"type":"function","name":"balanceOf","inputs":[{"name":"account","type":"address","internalType":"address"}],"outputs":[{"name":"","type":"uint256","internalType":"uint256"}],"stateMutability":"view"},{"type":"function","name":"buy","inputs":[{"name":"wldAmount","type":"uint256","internalType":"uint256"},{"name":"nullifierHash","type":"uint256","internalType":"uint256"},{"name":"proof","type":"uint256[8]","internalType":"uint256[8]"}],"outputs":[],"stateMutability":"nonpayable"},{"type":"function","name":"creatorVestingRecipient","inputs":[],"outputs":[{"name":"","type":"address","internalType":"address"}],"stateMutability":"view"},{"type":"function","name":"currentPrice","inputs":[],"outputs":[{"name":"","type":"uint256","internalType":"uint256"}],"stateMutability":"view"},{"type":"function","name":"decimals","inputs":[],"outputs":[{"name":"","type":"uint8","internalType":"uint8"}],"stateMutability":"view"},{"type":"function","name":"getBondingCurveState","inputs":[],"outputs":[{"name":"","type":"uint256","internalType":"uint256"},{"name":"","type":"uint256","internalType":"uint256"},{"name":"","type":"uint256","internalType":"uint256"},{"name":"","type":"bool","internalType":"bool"}],"stateMutability":"view"},{"type":"function","name":"getGraduationProgress","inputs":[],"outputs":[{"name":"","type":"uint256","internalType":"uint256"}],"stateMutability":"view"},{"type":"function","name":"graduationHandler","inputs":[],"outputs":[{"name":"","type":"address","internalType":"contract GraduationHandlerOptimized"}],"stateMutability":"view"},{"type":"function","name":"hasAddressPurchased","inputs":[{"name":"user","type":"address","internalType":"address"}],"outputs":[{"name":"","type":"bool","internalType":"bool"}],"stateMutability":"view"},{"type":"function","name":"hasPurchased","inputs":[{"name":"","type":"address","internalType":"address"}],"outputs":[{"name":"","type":"bool","internalType":"bool"}],"stateMutability":"view"},{"type":"function","name":"isGraduated","inputs":[],"outputs":[{"name":"","type":"bool","internalType":"bool"}],"stateMutability":"view"},{"type":"function","name":"maxSupply","inputs":[],"outputs":[{"name":"","type":"uint256","internalType":"uint256"}],"stateMutability":"view"},{"type":"function","name":"name","inputs":[],"outputs":[{"name":"","type":"string","internalType":"string"}],"stateMutability":"view"},{"type":"function","name":"owner","inputs":[],"outputs":[{"name":"","type":"address","internalType":"address"}],"stateMutability":"view"},{"type":"function","name":"platformFeeRecipient","inputs":[],"outputs":[{"name":"","type":"address","internalType":"address"}],"stateMutability":"view"},{"type":"function","name":"positionManager","inputs":[],"outputs":[{"name":"","type":"address","internalType":"contract INonfungiblePositionManager"}],"stateMutability":"view"},{"type":"function","name":"renounceOwnership","inputs":[],"outputs":[],"stateMutability":"nonpayable"},{"type":"function","name":"symbol","inputs":[],"outputs":[{"name":"","type":"string","internalType":"string"}],"stateMutability":"view"},{"type":"function","name":"totalRaisedWLD","inputs":[],"outputs":[{"name":"","type":"uint256","internalType":"uint256"}],"stateMutability":"view"},{"type":"function","name":"totalSupply","inputs":[],"outputs":[{"name":"","type":"uint256","internalType":"uint256"}],"stateMutability":"view"},{"type":"function","name":"transfer","inputs":[{"name":"to","type":"address","internalType":"address"},{"name":"value","type":"uint256","internalType":"uint256"}],"outputs":[{"name":"","type":"bool","internalType":"bool"}],"stateMutability":"nonpayable"},{"type":"function","name":"transferFrom","inputs":[{"name":"from","type":"address","internalType":"address"},{"name":"to","type":"address","internalType":"address"},{"name":"value","type":"uint256","internalType":"uint256"}],"outputs":[{"name":"","type":"bool","internalType":"bool"}],"stateMutability":"nonpayable"},{"type":"function","name":"transferOwnership","inputs":[{"name":"newOwner","type":"address","internalType":"address"}],"outputs":[],"stateMutability":"nonpayable"},{"type":"function","name":"uniswapFactory","inputs":[],"outputs":[{"name":"","type":"address","internalType":"contract IUniswapV3Factory"}],"stateMutability":"view"},{"type":"function","name":"uniswapPool","inputs":[],"outputs":[{"name":"","type":"address","internalType":"address"}],"stateMutability":"view"},{"type":"function","name":"usedNullifiers","inputs":[{"name":"","type":"uint256","internalType":"uint256"}],"outputs":[{"name":"","type":"bool","internalType":"bool"}],"stateMutability":"view"},{"type":"function","name":"wldToken","inputs":[],"outputs":[{"name":"","type":"address","internalType":"address"}],"stateMutability":"view"},{"type":"function","name":"worldId","inputs":[],"outputs":[{"name":"","type":"address","internalType":"contract IWorldID"}],"stateMutability":"view"},{"type":"function","name":"worldIdExternalNullifier","inputs":[],"outputs":[{"name":"","type":"uint256","internalType":"uint256"}],"stateMutability":"view"},{"type":"function","name":"worldIdGroupId","inputs":[],"outputs":[{"name":"","type":"uint256","internalType":"uint256"}],"stateMutability":"view"},{"type":"function","name":"worldIdRoot","inputs":[],"outputs":[{"name":"","type":"uint256","internalType":"uint256"}],"stateMutability":"view"},{"type":"event","name":"Approval","inputs":[{"name":"owner","type":"address","indexed":true,"internalType":"address"},{"name":"spender","type":"address","indexed":true,"internalType":"address"},{"name":"value","type":"uint256","indexed":false,"internalType":"uint256"}],"anonymous":false},{"type":"event","name":"Graduated","inputs":[{"name":"uniswapPoolAddress","type":"address","indexed":true,"internalType":"address"},{"name":"totalRaisedWLD","type":"uint256","indexed":false,"internalType":"uint256"},{"name":"finalPrice","type":"uint256","indexed":false,"internalType":"uint256"}],"anonymous":false},{"type":"event","name":"OwnershipTransferred","inputs":[{"name":"previousOwner","type":"address","indexed":true,"internalType":"address"},{"name":"newOwner","type":"address","indexed":true,"internalType":"address"}],"anonymous":false},{"type":"event","name":"TokensPurchased","inputs":[{"name":"buyer","type":"address","indexed":true,"internalType":"address"},{"name":"wldAmount","type":"uint256","indexed":false,"internalType":"uint256"},{"name":"tokenAmount","type":"uint256","indexed":false,"internalType":"uint256"},{"name":"newPrice","type":"uint256","indexed":false,"internalType":"uint256"}],"anonymous":false},{"type":"event","name":"Transfer","inputs":[{"name":"from","type":"address","indexed":true,"internalType":"address"},{"name":"to","type":"address","indexed":true,"internalType":"address"},{"name":"value","type":"uint256","indexed":false,"internalType":"uint256"}],"anonymous":false},{"type":"event","name":"WorldIDVerified","inputs":[{"name":"user","type":"address","indexed":true,"internalType":"address"},{"name":"nullifierHash","type":"uint256","indexed":false,"internalType":"uint256"}],"anonymous":false},{"type":"error","name":"ERC20InsufficientAllowance","inputs":[{"name":"spender","type":"address","internalType":"address"},{"name":"allowance","type":"uint256","internalType":"uint256"},{"name":"needed","type":"uint256","internalType":"uint256"}]},{"type":"error","name":"ERC20InsufficientBalance","inputs":[{"name":"sender","type":"address","internalType":"address"},{"name":"balance","type":"uint256","internalType":"uint256"},{"name":"needed","type":"uint256","internalType":"uint256"}]},{"type":"error","name":"ERC20InvalidApprover","inputs":[{"name":"approver","type":"address","internalType":"address"}]},{"type":"error","name":"ERC20InvalidReceiver","inputs":[{"name":"receiver","type":"address","internalType":"address"}]},{"type":"error","name":"ERC20InvalidSender","inputs":[{"name":"sender","type":"address","internalType":"address"}]},{"type":"error","name":"ERC20InvalidSpender","inputs":[{"name":"spender","type":"address","internalType":"address"}]},{"type":"error","name":"OwnableInvalidOwner","inputs":[{"name":"owner","type":"address","internalType":"address"}]},{"type":"error","name":"OwnableUnauthorizedAccount","inputs":[{"name":"account","type":"address","internalType":"address"}]},{"type":"error","name":"ReentrancyGuardReentrantCall","inputs":[]}],"bytecode":{"object":"0x6101606040523461050f57612c348038038061001a81610513565b92833981016101a08282031261050f5781516001600160401b03811161050f5781610046918401610538565b602083015190916001600160401b03821161050f57610066918401610538565b9161007360408201610589565b9161008060608301610589565b9361008d60808401610589565b9261009a60a08201610589565b926100a760c08301610589565b916100b460e08201610589565b936101008201519661012083015190610140840151926101806101608601519501519580519060018060401b0382116103025760035490600182811c92168015610505575b60208310146104085781601f849311610497575b50602090601f8311600114610431575f92610426575b50508160011b915f199060031b1c1916176003555b8051906001600160401b0382116103025760045490600182811c9216801561041c575b60208310146104085781601f84931161039a575b50602090601f8311600114610334575f92610329575b50508160011b915f199060031b1c1916176004555b33156103165760058054336001600160a01b0319821681179092556040519c91906001600160a01b03167f8be0079c531659141344cd1fd0a4f28419497f9722a3daafe3b4186f6b6457e05f80a360016006556101008b90526001600160a01b0390811660805290811660a0819052971660c0819052610120869052610140879052600798909855600955600b55600c55600d556112f393868501936001600160401b038511888610176103025760c096889661194188393086526001600160a01b0390811660208701526040860191909152606085019190915290811660808401521660a08201520301905ff080156102f75760e0526040516113a3908161059e82396080518181816102730152610d56015260a05181610cb1015260c05181610d12015260e0518181816104c10152610e2c0152610100518181816102220152610b4101526101205181610949015261014051816111190152f35b6040513d5f823e3d90fd5b634e487b7160e01b5f52604160045260245ffd5b631e4fbdf760e01b5f525f60045260245ffd5b015190505f80610185565b60045f9081528281209350601f198516905b818110610382575090846001959493921061036a575b505050811b0160045561019a565b01515f1960f88460031b161c191690555f808061035c565b92936020600181928786015181550195019301610346565b60045f529091507f8a35acfbc15ff81a39ae7d344fd709f28e8600b4aa8c65c6b64bfe7fe36bd19b601f840160051c810191602085106103fe575b90601f859493920160051c01905b8181106103f0575061016f565b5f81558493506001016103e3565b90915081906103d5565b634e487b7160e01b5f52602260045260245ffd5b91607f169161015b565b015190505f80610123565b60035f9081528281209350601f198516905b81811061047f5750908460019594939210610467575b505050811b01600355610138565b01515f1960f88460031b161c191690555f8080610459565b92936020600181928786015181550195019301610443565b60035f529091507fc2575a0e9e593c00f959f8c92f12db2869c3395a3b0502d05e2516446f71f85b601f840160051c810191602085106104fb575b90601f859493920160051c01905b8181106104ed575061010d565b5f81558493506001016104e0565b90915081906104d2565b91607f16916100f9565b5f80fd5b6040519190601f01601f191682016001600160401b0381118382101761030257604052565b81601f8201121561050f578051906001600160401b03821161030257610567601f8301601f1916602001610513565b928284526020838301011161050f57815f9260208093018386015e8301015290565b51906001600160a01b038216820361050f5756fe6080806040526004361015610012575f80fd5b5f905f3560e01c908162adc389146111075750806306fdde031461104c578063094d7a2e14611011578063095ea7b314610f8f57806318160ddd14610f7257806323b872dd14610e93578063313ce56714610e785780633161799414610e5b5780634b0587ec14610e1757806370a0823114610de0578063715018a614610d85578063753e9ef014610d41578063791b98bc14610cfd57806379ee5e3314610ce05780638bdb2afa14610c9c5780638da5cb5b14610c7457806390118fb41461097857806395d89b4114610b705780639be3783d14610b2c5780639d1b464a14610b0f5780639e5f260214610aed578063a9059cbb14610abc578063aad2406114610a8d578063bab2185e14610a70578063bdd3d82514610a44578063c764263a14610a22578063d5abeb0114610a05578063dd62ed3e146109b5578063e73effd014610978578063eb13554f14610934578063f0724d2314610917578063f2fde38b14610891578063fcfc0c091461086e5763fe3f5ce214610193575f80fd5b3461071c5761014036600319011261071c57600435602435366101441161071c5760026006541461085f5760026006556101d260ff600a541615611224565b811561081a57805f52600e60205260ff60405f2054166107d557335f52600f60205260ff60405f205416610785576040516323b872dd60e01b8152336004820152306024820152604481018390527f00000000000000000000000000000000000000000000000000000000000000006001600160a01b031691906020816064815f875af190811561077a575f9161075b575b50156107205760018060a01b037f00000000000000000000000000000000000000000000000000000000000000001660405160208101903360601b8252426034820152603481526102b660548261119e565b519020600b54600d5492803b1561071c575f92836101849260405196879586946301aa650960e51b8652600486015260248501528860448501526064840152610100604460848501375af19081610707575b5061034b5760405162461bcd60e51b81526020600482015260166024820152752bb7b9363224a21d1024b73b30b634b210383937b7b360511b6044820152606490fd5b6040518181527f3ce3861f233f7cc26caa8426b30e97a5b7afabb23448fb55227ab3186106fa0760203392a28352600e60205260408320600160ff19825416179055338352600f60205260408320600160ff1982541617905560075480156106f3578204916103bc8360025461127c565b600954106106b85733156106a4579083916103d98460025461127c565b6002553383528260205260408320848154019055604051848152837fddf252ad1be2c89b69c2b068fc378daa952ba7f163c4a11628f55a4df523b3ef60203393a36104268160085461127c565b938460085561043c6007546103e883049061127c565b9081600755604051928352602083015260408201527f0d1a0d5e3d583a0e92588799dd06e50fd78c07daf05f0cc06d7b848b1ca445f160603392a2683635c9adc5dea00000831015610492575b50600160065580f35b6105076020916001600a546104aa60ff821615611224565b60ff191617600a5560405163a9059cbb60e01b81527f00000000000000000000000000000000000000000000000000000000000000006001600160a01b031660048201819052602482019690965293849283919082906044820190565b03925af1801561067c57610687575b5060025460405163a9059cbb60e01b81526001600160a01b0383166004820152602481019190915260208160448186305af1801561067c5761064f575b5060206007546044600254918560405195869485936326b1a86b60e01b8552600485015260248401525af19081156106445782916105fe575b50600a8054610100600160a81b031916600892831b610100600160a81b0316179081905581546007546040805192835260208301919091529190921c6001600160a01b0316917f1c858049e704460ab9455025be4078f9e746e3fd426a56040d06389edb8197db9190a25f8181610489565b90506020813d60201161063c575b816106196020938361119e565b8101031261063857516001600160a01b0381168103610638575f61058c565b5080fd5b3d915061060c565b6040513d84823e3d90fd5b6106709060203d602011610675575b610668818361119e565b810190611264565b610553565b503d61065e565b6040513d85823e3d90fd5b61069f9060203d60201161067557610668818361119e565b610516565b63ec442f0560e01b84526004849052602484fd5b60405162461bcd60e51b815260206004820152601360248201527213585e081cdd5c1c1b1e48195e18d959591959606a1b6044820152606490fd5b634e487b7160e01b84526012600452602484fd5b6107149195505f9061119e565b5f935f610308565b5f80fd5b60405162461bcd60e51b815260206004820152601360248201527215d311081d1c985b9cd9995c8819985a5b1959606a1b6044820152606490fd5b610774915060203d60201161067557610668818361119e565b5f610264565b6040513d5f823e3d90fd5b60405162461bcd60e51b815260206004820152602260248201527f576f726c6449443a206164647265737320616c72656164792070757263686173604482015261195960f21b6064820152608490fd5b60405162461bcd60e51b815260206004820152601f60248201527f576f726c6449443a206e756c6c696669657220616c72656164792075736564006044820152606490fd5b60405162461bcd60e51b815260206004820152601d60248201527f416d6f756e74206d7573742062652067726561746572207468616e20300000006044820152606490fd5b633ee5aeb560e01b5f5260045ffd5b3461071c575f36600319011261071c576020604051683635c9adc5dea000008152f35b3461071c57602036600319011261071c576108aa611172565b6108b2611346565b6001600160a01b0316801561090457600580546001600160a01b0319811683179091556001600160a01b03167f8be0079c531659141344cd1fd0a4f28419497f9722a3daafe3b4186f6b6457e05f80a3005b631e4fbdf760e01b5f525f60045260245ffd5b3461071c575f36600319011261071c576020600d54604051908152f35b3461071c575f36600319011261071c576040517f00000000000000000000000000000000000000000000000000000000000000006001600160a01b03168152602090f35b3461071c57602036600319011261071c576001600160a01b03610999611172565b165f52600f602052602060ff60405f2054166040519015158152f35b3461071c57604036600319011261071c576109ce611172565b6109d6611188565b6001600160a01b039182165f908152600160209081526040808320949093168252928352819020549051908152f35b3461071c575f36600319011261071c576020600954604051908152f35b3461071c575f36600319011261071c576020610a3c6111d4565b604051908152f35b3461071c575f36600319011261071c57600a5460405160089190911c6001600160a01b03168152602090f35b3461071c575f36600319011261071c576020600854604051908152f35b3461071c57602036600319011261071c576004355f52600e602052602060ff60405f2054166040519015158152f35b3461071c57604036600319011261071c57610ae2610ad8611172565b6024359033611289565b602060405160018152f35b3461071c575f36600319011261071c57602060ff600a54166040519015158152f35b3461071c575f36600319011261071c576020600754604051908152f35b3461071c575f36600319011261071c576040517f00000000000000000000000000000000000000000000000000000000000000006001600160a01b03168152602090f35b3461071c575f36600319011261071c576040515f6004548060011c90600181168015610c6a575b602083108114610c5657828552908115610c325750600114610bd4575b610bd083610bc48185038261119e565b60405191829182611148565b0390f35b91905060045f527f8a35acfbc15ff81a39ae7d344fd709f28e8600b4aa8c65c6b64bfe7fe36bd19b915f905b808210610c1857509091508101602001610bc4610bb4565b919260018160209254838588010152019101909291610c00565b60ff191660208086019190915291151560051b84019091019150610bc49050610bb4565b634e487b7160e01b5f52602260045260245ffd5b91607f1691610b97565b3461071c575f36600319011261071c576005546040516001600160a01b039091168152602090f35b3461071c575f36600319011261071c576040517f00000000000000000000000000000000000000000000000000000000000000006001600160a01b03168152602090f35b3461071c575f36600319011261071c576020600c54604051908152f35b3461071c575f36600319011261071c576040517f00000000000000000000000000000000000000000000000000000000000000006001600160a01b03168152602090f35b3461071c575f36600319011261071c576040517f00000000000000000000000000000000000000000000000000000000000000006001600160a01b03168152602090f35b3461071c575f36600319011261071c57610d9d611346565b600580546001600160a01b031981169091555f906001600160a01b03167f8be0079c531659141344cd1fd0a4f28419497f9722a3daafe3b4186f6b6457e08280a3005b3461071c57602036600319011261071c576001600160a01b03610e01611172565b165f525f602052602060405f2054604051908152f35b3461071c575f36600319011261071c576040517f00000000000000000000000000000000000000000000000000000000000000006001600160a01b03168152602090f35b3461071c575f36600319011261071c576020600b54604051908152f35b3461071c575f36600319011261071c57602060405160128152f35b3461071c57606036600319011261071c57610eac611172565b610eb4611188565b6001600160a01b0382165f818152600160209081526040808320338452909152902054909260443592915f198110610ef2575b50610ae29350611289565b838110610f57578415610f44573315610f3157610ae2945f52600160205260405f2060018060a01b0333165f526020528360405f209103905584610ee7565b634a1406b160e11b5f525f60045260245ffd5b63e602df0560e01b5f525f60045260245ffd5b8390637dc7a0d960e11b5f523360045260245260445260645ffd5b3461071c575f36600319011261071c576020600254604051908152f35b3461071c57604036600319011261071c57610fa8611172565b602435903315610f44576001600160a01b0316908115610f3157335f52600160205260405f20825f526020528060405f20556040519081527f8c5be1e5ebec7d5bd14f71427d1e84f3dd0314c0f7b2291e5b200ac8c7c3b92560203392a3602060405160018152f35b3461071c575f36600319011261071c57608060075460085460025460ff600a5416916040519384526020840152604083015215156060820152f35b3461071c575f36600319011261071c576040515f6003548060011c906001811680156110fd575b602083108114610c5657828552908115610c32575060011461109f57610bd083610bc48185038261119e565b91905060035f527fc2575a0e9e593c00f959f8c92f12db2869c3395a3b0502d05e2516446f71f85b915f905b8082106110e357509091508101602001610bc4610bb4565b9192600181602092548385880101520191019092916110cb565b91607f1691611073565b3461071c575f36600319011261071c577f00000000000000000000000000000000000000000000000000000000000000006001600160a01b03168152602090f35b602060409281835280519182918282860152018484015e5f828201840152601f01601f1916010190565b600435906001600160a01b038216820361071c57565b602435906001600160a01b038216820361071c57565b90601f8019910116810190811067ffffffffffffffff8211176111c057604052565b634e487b7160e01b5f52604160045260245ffd5b600854683635c9adc5dea0000081101561121e5760648102908082046064149015171561120a57683635c9adc5dea00000900490565b634e487b7160e01b5f52601160045260245ffd5b50606490565b1561122b57565b60405162461bcd60e51b8152602060048201526011602482015270105b1c9958591e4819dc98591d585d1959607a1b6044820152606490fd5b9081602091031261071c5751801515810361071c5790565b9190820180921161120a57565b6001600160a01b0316908115611333576001600160a01b031691821561132057815f525f60205260405f205481811061130757817fddf252ad1be2c89b69c2b068fc378daa952ba7f163c4a11628f55a4df523b3ef92602092855f525f84520360405f2055845f525f825260405f20818154019055604051908152a3565b8263391434e360e21b5f5260045260245260445260645ffd5b63ec442f0560e01b5f525f60045260245ffd5b634b637e8f60e11b5f525f60045260245ffd5b6005546001600160a01b0316330361135a57565b63118cdaa760e01b5f523360045260245ffdfea26469706673582212202b28047feb3976369b98783a85a440d97f89f159a50cc47915f842214e0e497964736f6c634300081c00336101403461019d57601f6112f338819003918201601f19168301916001600160401b038311848410176101a15780849260c09460405283398101031261019d57610048816101b5565b90610055602082016101b5565b90610062604082016101b5565b61006e606083016101b5565b9061008760a0610080608086016101b5565b94016101b5565b93331561018a575f8054336001600160a01b0319821681178355604051989290916001600160a01b0316907f8be0079c531659141344cd1fd0a4f28419497f9722a3daafe3b4186f6b6457e09080a3600180556001600160a01b0390811660805290811660a05290811660c0521660e052610100526101205261112990816101ca823960805181818161010301526104b2015260a05181818161028601526104dc015260c0518181816102f2015261051f015260e05181818161035301526106560152610100518181816101d901528181610cc70152610d38015261012051818181610b0401528181610bbb01528181610c0d01528181610c89015261103a0152f35b631e4fbdf760e01b5f525f60045260245ffd5b5f80fd5b634e487b7160e01b5f52604160045260245ffd5b51906001600160a01b038216820361019d5756fe6080806040526004361015610012575f80fd5b5f905f3560e01c908162adc3891461102857508063010a38f51461100b5780630910a51014610fe557806326b1a86b1461046157806336f3dd27146104145780633ccfbabf146103f857806348981d8a146103dc578063715018a614610382578063791b98bc1461033d5780637a9e361c146103215780638bdb2afa146102dc5780638da5cb5b146102b55780639be3783d146102705780639e5f26021461024d578063bdd3d82514610224578063d412793e14610208578063eb13554f146101c3578063f2fde38b146101355763fc0c546a146100ee575f80fd5b346101325780600319360112610132576040517f00000000000000000000000000000000000000000000000000000000000000006001600160a01b03168152602090f35b80fd5b5034610132576020366003190112610132576004356001600160a01b038116908190036101bf5761016461109f565b80156101ab5781546001600160a01b03198116821783556001600160a01b03167f8be0079c531659141344cd1fd0a4f28419497f9722a3daafe3b4186f6b6457e08380a380f35b631e4fbdf760e01b82526004829052602482fd5b5080fd5b50346101325780600319360112610132576040517f00000000000000000000000000000000000000000000000000000000000000006001600160a01b03168152602090f35b50346101325780600319360112610132576020604051600f8152f35b50346101325780600319360112610132576002546040516001600160a01b039091168152602090f35b5034610132578060031936011261013257602060ff600554166040519015158152f35b50346101325780600319360112610132576040517f00000000000000000000000000000000000000000000000000000000000000006001600160a01b03168152602090f35b5034610132578060031936011261013257546040516001600160a01b039091168152602090f35b50346101325780600319360112610132576040517f00000000000000000000000000000000000000000000000000000000000000006001600160a01b03168152602090f35b5034610132578060031936011261013257602060405160078152f35b50346101325780600319360112610132576040517f00000000000000000000000000000000000000000000000000000000000000006001600160a01b03168152602090f35b503461013257806003193601126101325761039b61109f565b80546001600160a01b03198116825581906001600160a01b03167f8be0079c531659141344cd1fd0a4f28419497f9722a3daafe3b4186f6b6457e08280a380f35b50346101325780600319360112610132576020604051600a8152f35b5034610132578060031936011261013257602060405160538152f35b5034610132578060031936011261013257608060018060a01b03600254166001600160801b036003541660045460ff60055416916040519384526020840152604083015215156060820152f35b5034610a48576040366003190112610a48576004356024359161048261109f565b600260015414610fd657600260015560ff60055416610f9d5760405163a167129560e01b81526001600160a01b037f00000000000000000000000000000000000000000000000000000000000000008116600483018190527f0000000000000000000000000000000000000000000000000000000000000000821660248401819052610bb860448501529095929091602090829060649082905f907f0000000000000000000000000000000000000000000000000000000000000000165af1908115610f3c575f91610f5b575b506001600160a01b031693606081901b90808204600160601b1490151715610f4757843b15610a485760405163f637731d60e01b8152670de0b6b3a76400009091046001600160a01b031660048201525f8160248183895af18015610f3c57610f27575b50836bffffffffffffffffffffffff60a01b6002541617600255600160ff1960055416176005558085857f9f12f04192989812b1bc4495c726550906253dda43690b0cb421d08c30cfef866020604051610bb88152a46040516370a0823160e01b8152306004820152602081602481855afa908115610ae6578491610ef5575b50606461063f846110c5565b60405163095ea7b360e01b81526001600160a01b037f000000000000000000000000000000000000000000000000000000000000000016600482018190529290910460248201819052919291906020816044818a8d5af18015610bad57610ed8575b5060405163095ea7b360e01b81526001600160a01b0384166004820152602481018390526020816044818a895af18015610bad57610ebb575b50838810908115610eb45788925b8215610ead5785915b8315610ea65780935b15610e9e5750915b61012c420192834211610bea5760405194610160860186811067ffffffffffffffff821117610e8a57908a93929160405260018060a01b03168652602086019360018060a01b031684526040860191610bb8835260608701620d89b31981526080880190620d89b4825260a0890192835260c0890193845262ffffff60e08a01958787526101008b019788526101208b0198308a526101408c019a8b526040519b634418b22b60e11b8d5260018060a01b0390511660048d015260018060a01b0390511660248c0152511660448a01525160020b60648901525160020b60848801525160a48701525160c48601525160e48501525161010484015260018060a01b03905116610124830152516101448201526080816101648188865af18015610dfe5785918687918893610e09575b509183916001600160801b036080947f349a5134d5729502d70a88264720af4ccfc9b5dbf3866f51a0dc4e11401951ac9660045516806001600160801b03196003541617600355604051938452602084015260408301526060820152a16040516370a0823160e01b8152306004820152602081602481865afa908115610dfe578591610dcc575b506040516370a0823160e01b81523060048201526020816024818b5afa908115610dc1578691610d8f575b50600a820291801592818104600a14841715610d7b576064900492600782029182046007141715610d6757606490049082151580610d35575b610cb8575b81151580610c86575b610bfe575b606461093a826110c5565b0480820391808311610bea57141580610bb8575b610af5575b507f771d362663b46bd788cd13fc183c9432449a2be6bcb81051bfeb484afd9c5dd89160409182519182526020820152a160045480610a60575b50506020602491604051928380926370a0823160e01b82523060048301525afa928315610a5457926109fa575b50927f7202c420c776fa49c432e09662be5b716b6eb655266c3eb54f38fe987d83171b60408493602096825191825287820152a360018055604051908152f35b9150926020823d602011610a4c575b81610a1660209383611069565b81010312610a4857905190927f7202c420c776fa49c432e09662be5b716b6eb655266c3eb54f38fe987d83171b6109ba565b5f80fd5b3d9150610a09565b604051903d90823e3d90fd5b813b15610af1578491602483926040519485938492630852cd8d60e31b845260048401525af18015610ae657908491610acd575b505060206024917faab23eedad1a8a93aac0e6aae815839c699118ae3212e80278716158b130453f82600454604051908152a19161098d565b81610ad791611069565b610ae257825f610a94565b8280fd5b6040513d86823e3d90fd5b8480fd5b60405163a9059cbb60e01b81527f00000000000000000000000000000000000000000000000000000000000000006001600160a01b0316600482015260248101919091526020816044818a8d5af18015610bad57917f771d362663b46bd788cd13fc183c9432449a2be6bcb81051bfeb484afd9c5dd89391604093610b7e575b50915091610953565b610b9f9060203d602011610ba6575b610b978183611069565b8101906110db565b505f610b75565b503d610b8d565b6040513d89823e3d90fd5b507f00000000000000000000000000000000000000000000000000000000000000006001600160a01b0316151561094e565b634e487b7160e01b89526011600452602489fd5b60405163a9059cbb60e01b81527f00000000000000000000000000000000000000000000000000000000000000006001600160a01b03166004820152602481018390526020816044818b8a5af18015610c7b57610c5c575b5061092f565b610c749060203d602011610ba657610b978183611069565b505f610c56565b6040513d8a823e3d90fd5b507f00000000000000000000000000000000000000000000000000000000000000006001600160a01b0316151561092a565b60405163a9059cbb60e01b81527f00000000000000000000000000000000000000000000000000000000000000006001600160a01b03166004820152602481018490526020816044818b8a5af18015610c7b57610d16575b50610921565b610d2e9060203d602011610ba657610b978183611069565b505f610d10565b507f00000000000000000000000000000000000000000000000000000000000000006001600160a01b0316151561091c565b634e487b7160e01b87526011600452602487fd5b634e487b7160e01b88526011600452602488fd5b90506020813d602011610db9575b81610daa60209383611069565b81010312610a4857515f6108e3565b3d9150610d9d565b6040513d88823e3d90fd5b90506020813d602011610df6575b81610de760209383611069565b81010312610a4857515f6108b8565b3d9150610dda565b6040513d87823e3d90fd5b93505050506080813d608011610e82575b81610e2760809383611069565b81010312610af1578051906020810151916001600160801b0383168303610e7e57604082015160609092015190929091907f349a5134d5729502d70a88264720af4ccfc9b5dbf3866f51a0dc4e11401951ac610831565b8680fd5b3d9150610e1a565b634e487b7160e01b8b52604160045260248bfd5b905091610702565b81936106fa565b89916106f1565b84926106e8565b610ed39060203d602011610ba657610b978183611069565b6106da565b610ef09060203d602011610ba657610b978183611069565b6106a1565b90506020813d602011610f1f575b81610f1060209383611069565b81010312610a4857515f610633565b3d9150610f03565b610f349193505f90611069565b5f915f6105b3565b6040513d5f823e3d90fd5b634e487b7160e01b5f52601160045260245ffd5b90506020813d602011610f95575b81610f7660209383611069565b81010312610a4857516001600160a01b0381168103610a48575f61054f565b3d9150610f69565b60405162461bcd60e51b8152602060048201526011602482015270105b1c9958591e4819dc98591d585d1959607a1b6044820152606490fd5b633ee5aeb560e01b5f5260045ffd5b34610a48575f366003190112610a485760206001600160801b0360035416604051908152f35b34610a48575f366003190112610a48576020600454604051908152f35b34610a48575f366003190112610a48577f00000000000000000000000000000000000000000000000000000000000000006001600160a01b03168152602090f35b90601f8019910116810190811067ffffffffffffffff82111761108b57604052565b634e487b7160e01b5f52604160045260245ffd5b5f546001600160a01b031633036110b257565b63118cdaa760e01b5f523360045260245ffd5b90600f820291808304600f1490151715610f4757565b90816020910312610a4857518015158103610a48579056fea2646970667358221220e995e3c9ea5ceed534c2be6bc7cd939d038f40063c9db52c72573f3be033ab2764736f6c634300081c0033","linkReferences":{}},"methodIdentifiers":{"GRADUATION_THRESHOLD()":"fcfc0c09","allowance(address,address)":"dd62ed3e","approve(address,uint256)":"095ea7b3","balanceOf(address)":"70a08231","buy(uint256,uint256,uint256[8])":"fe3f5ce2","creatorVestingRecipient()":"00adc389","currentPrice()":"9d1b464a","decimals()":"313ce567","getBondingCurveState()":"094d7a2e","getGraduationProgress()":"c764263a","graduationHandler()":"4b0587ec","hasAddressPurchased(address)":"e73effd0","hasPurchased(address)":"90118fb4","isGraduated()":"9e5f2602","maxSupply()":"d5abeb01","name()":"06fdde03","owner()":"8da5cb5b","platformFeeRecipient()":"eb13554f","positionManager()":"791b98bc","renounceOwnership()":"715018a6","symbol()":"95d89b41","totalRaisedWLD()":"bab2185e","totalSupply()":"18160ddd","transfer(address,uint256)":"a9059cbb","transferFrom(address,address,uint256)":"23b872dd","transferOwnership(address)":"f2fde38b","uniswapFactory()":"8bdb2afa","uniswapPool()":"bdd3d825","usedNullifiers(uint256)":"aad24061","wldToken()":"9be3783d","worldId()":"753e9ef0","worldIdExternalNullifier()":"f0724d23","worldIdGroupId()":"79ee5e33","worldIdRoot()":"31617994"},"id":11}