{"abi":[{"type":"constructor","inputs":[{"name":"name","type":"string","internalType":"string"},{"name":"symbol","type":"string","internalType":"string"},{"name":"_wldToken","type":"address","internalType":"address"},{"name":"_worldId","type":"address","internalType":"address"},{"name":"_initialPrice","type":"uint256","internalType":"uint256"},{"name":"_maxSupply","type":"uint256","internalType":"uint256"},{"name":"_worldIdRoot","type":"uint256","internalType":"uint256"},{"name":"_worldIdExternalNullifier","type":"uint256","internalType":"uint256"}],"stateMutability":"nonpayable"},{"type":"function","name":"GRADUATION_THRESHOLD","inputs":[],"outputs":[{"name":"","type":"uint256","internalType":"uint256"}],"stateMutability":"view"},{"type":"function","name":"allowance","inputs":[{"name":"owner","type":"address","internalType":"address"},{"name":"spender","type":"address","internalType":"address"}],"outputs":[{"name":"","type":"uint256","internalType":"uint256"}],"stateMutability":"view"},{"type":"function","name":"approve","inputs":[{"name":"spender","type":"address","internalType":"address"},{"name":"value","type":"uint256","internalType":"uint256"}],"outputs":[{"name":"","type":"bool","internalType":"bool"}],"stateMutability":"nonpayable"},{"type":"function","name":"balanceOf","inputs":[{"name":"account","type":"address","internalType":"address"}],"outputs":[{"name":"","type":"uint256","internalType":"uint256"}],"stateMutability":"view"},{"type":"function","name":"buy","inputs":[{"name":"wldAmount","type":"uint256","internalType":"uint256"},{"name":"nullifierHash","type":"uint256","internalType":"uint256"},{"name":"proof","type":"uint256[8]","internalType":"uint256[8]"}],"outputs":[],"stateMutability":"nonpayable"},{"type":"function","name":"currentPrice","inputs":[],"outputs":[{"name":"","type":"uint256","internalType":"uint256"}],"stateMutability":"view"},{"type":"function","name":"decimals","inputs":[],"outputs":[{"name":"","type":"uint8","internalType":"uint8"}],"stateMutability":"view"},{"type":"function","name":"getBondingCurveState","inputs":[],"outputs":[{"name":"","type":"uint256","internalType":"uint256"},{"name":"","type":"uint256","internalType":"uint256"},{"name":"","type":"uint256","internalType":"uint256"},{"name":"","type":"bool","internalType":"bool"}],"stateMutability":"view"},{"type":"function","name":"getGraduationProgress","inputs":[],"outputs":[{"name":"","type":"uint256","internalType":"uint256"}],"stateMutability":"view"},{"type":"function","name":"hasAddressPurchased","inputs":[{"name":"user","type":"address","internalType":"address"}],"outputs":[{"name":"","type":"bool","internalType":"bool"}],"stateMutability":"view"},{"type":"function","name":"hasPurchased","inputs":[{"name":"","type":"address","internalType":"address"}],"outputs":[{"name":"","type":"bool","internalType":"bool"}],"stateMutability":"view"},{"type":"function","name":"isGraduated","inputs":[],"outputs":[{"name":"","type":"bool","internalType":"bool"}],"stateMutability":"view"},{"type":"function","name":"maxSupply","inputs":[],"outputs":[{"name":"","type":"uint256","internalType":"uint256"}],"stateMutability":"view"},{"type":"function","name":"name","inputs":[],"outputs":[{"name":"","type":"string","internalType":"string"}],"stateMutability":"view"},{"type":"function","name":"owner","inputs":[],"outputs":[{"name":"","type":"address","internalType":"address"}],"stateMutability":"view"},{"type":"function","name":"renounceOwnership","inputs":[],"outputs":[],"stateMutability":"nonpayable"},{"type":"function","name":"symbol","inputs":[],"outputs":[{"name":"","type":"string","internalType":"string"}],"stateMutability":"view"},{"type":"function","name":"totalRaisedWLD","inputs":[],"outputs":[{"name":"","type":"uint256","internalType":"uint256"}],"stateMutability":"view"},{"type":"function","name":"totalSupply","inputs":[],"outputs":[{"name":"","type":"uint256","internalType":"uint256"}],"stateMutability":"view"},{"type":"function","name":"transfer","inputs":[{"name":"to","type":"address","internalType":"address"},{"name":"value","type":"uint256","internalType":"uint256"}],"outputs":[{"name":"","type":"bool","internalType":"bool"}],"stateMutability":"nonpayable"},{"type":"function","name":"transferFrom","inputs":[{"name":"from","type":"address","internalType":"address"},{"name":"to","type":"address","internalType":"address"},{"name":"value","type":"uint256","internalType":"uint256"}],"outputs":[{"name":"","type":"bool","internalType":"bool"}],"stateMutability":"nonpayable"},{"type":"function","name":"transferOwnership","inputs":[{"name":"newOwner","type":"address","internalType":"address"}],"outputs":[],"stateMutability":"nonpayable"},{"type":"function","name":"uniswapPool","inputs":[],"outputs":[{"name":"","type":"address","internalType":"address"}],"stateMutability":"view"},{"type":"function","name":"usedNullifiers","inputs":[{"name":"","type":"uint256","internalType":"uint256"}],"outputs":[{"name":"","type":"bool","internalType":"bool"}],"stateMutability":"view"},{"type":"function","name":"wldToken","inputs":[],"outputs":[{"name":"","type":"address","internalType":"address"}],"stateMutability":"view"},{"type":"function","name":"worldId","inputs":[],"outputs":[{"name":"","type":"address","internalType":"contract IWorldID"}],"stateMutability":"view"},{"type":"function","name":"worldIdExternalNullifier","inputs":[],"outputs":[{"name":"","type":"uint256","internalType":"uint256"}],"stateMutability":"view"},{"type":"function","name":"worldIdGroupId","inputs":[],"outputs":[{"name":"","type":"uint256","internalType":"uint256"}],"stateMutability":"view"},{"type":"function","name":"worldIdRoot","inputs":[],"outputs":[{"name":"","type":"uint256","internalType":"uint256"}],"stateMutability":"view"},{"type":"event","name":"Approval","inputs":[{"name":"owner","type":"address","indexed":true,"internalType":"address"},{"name":"spender","type":"address","indexed":true,"internalType":"address"},{"name":"value","type":"uint256","indexed":false,"internalType":"uint256"}],"anonymous":false},{"type":"event","name":"Graduated","inputs":[{"name":"uniswapPoolAddress","type":"address","indexed":true,"internalType":"address"},{"name":"totalRaisedWLD","type":"uint256","indexed":false,"internalType":"uint256"},{"name":"finalPrice","type":"uint256","indexed":false,"internalType":"uint256"}],"anonymous":false},{"type":"event","name":"OwnershipTransferred","inputs":[{"name":"previousOwner","type":"address","indexed":true,"internalType":"address"},{"name":"newOwner","type":"address","indexed":true,"internalType":"address"}],"anonymous":false},{"type":"event","name":"TokensPurchased","inputs":[{"name":"buyer","type":"address","indexed":true,"internalType":"address"},{"name":"wldAmount","type":"uint256","indexed":false,"internalType":"uint256"},{"name":"tokenAmount","type":"uint256","indexed":false,"internalType":"uint256"},{"name":"newPrice","type":"uint256","indexed":false,"internalType":"uint256"}],"anonymous":false},{"type":"event","name":"Transfer","inputs":[{"name":"from","type":"address","indexed":true,"internalType":"address"},{"name":"to","type":"address","indexed":true,"internalType":"address"},{"name":"value","type":"uint256","indexed":false,"internalType":"uint256"}],"anonymous":false},{"type":"event","name":"WorldIDVerified","inputs":[{"name":"user","type":"address","indexed":true,"internalType":"address"},{"name":"nullifierHash","type":"uint256","indexed":false,"internalType":"uint256"}],"anonymous":false},{"type":"error","name":"ERC20InsufficientAllowance","inputs":[{"name":"spender","type":"address","internalType":"address"},{"name":"allowance","type":"uint256","internalType":"uint256"},{"name":"needed","type":"uint256","internalType":"uint256"}]},{"type":"error","name":"ERC20InsufficientBalance","inputs":[{"name":"sender","type":"address","internalType":"address"},{"name":"balance","type":"uint256","internalType":"uint256"},{"name":"needed","type":"uint256","internalType":"uint256"}]},{"type":"error","name":"ERC20InvalidApprover","inputs":[{"name":"approver","type":"address","internalType":"address"}]},{"type":"error","name":"ERC20InvalidReceiver","inputs":[{"name":"receiver","type":"address","internalType":"address"}]},{"type":"error","name":"ERC20InvalidSender","inputs":[{"name":"sender","type":"address","internalType":"address"}]},{"type":"error","name":"ERC20InvalidSpender","inputs":[{"name":"spender","type":"address","internalType":"address"}]},{"type":"error","name":"OwnableInvalidOwner","inputs":[{"name":"owner","type":"address","internalType":"address"}]},{"type":"error","name":"OwnableUnauthorizedAccount","inputs":[{"name":"account","type":"address","internalType":"address"}]},{"type":"error","name":"ReentrancyGuardReentrantCall","inputs":[]}],"bytecode":{"object":"0x60c060405234610400576115228038038061001981610404565b9283398101610100828203126104005781516001600160401b0381116104005781610045918401610429565b602083015190916001600160401b03821161040057610065918401610429565b916100726040820161047a565b9261007f6060830161047a565b60808301519060a08401519260e060c08601519501519580519060018060401b0382116103035760035490600182811c921680156103f6575b60208310146102e55781601f849311610388575b50602090601f8311600114610322575f92610317575b50508160011b915f199060031b1c1916176003555b8051906001600160401b0382116103035760045490600182811c921680156102f9575b60208310146102e55781601f849311610277575b50602090601f8311600114610211575f92610206575b50508160011b915f199060031b1c1916176004555b33156101f35760058054336001600160a01b0319821681179092556040519791906001600160a01b03167f8be0079c531659141344cd1fd0a4f28419497f9722a3daafe3b4186f6b6457e05f80a3600160065560a0526001600160a01b0316608052600755600955600b55600d55611093908161048f823960805181818161023b0152610ae6015260a0518181816101f401526109590152f35b631e4fbdf760e01b5f525f60045260245ffd5b015190505f80610144565b60045f9081528281209350601f198516905b81811061025f5750908460019594939210610247575b505050811b01600455610159565b01515f1960f88460031b161c191690555f8080610239565b92936020600181928786015181550195019301610223565b60045f529091507f8a35acfbc15ff81a39ae7d344fd709f28e8600b4aa8c65c6b64bfe7fe36bd19b601f840160051c810191602085106102db575b90601f859493920160051c01905b8181106102cd575061012e565b5f81558493506001016102c0565b90915081906102b2565b634e487b7160e01b5f52602260045260245ffd5b91607f169161011a565b634e487b7160e01b5f52604160045260245ffd5b015190505f806100e2565b60035f9081528281209350601f198516905b8181106103705750908460019594939210610358575b505050811b016003556100f7565b01515f1960f88460031b161c191690555f808061034a565b92936020600181928786015181550195019301610334565b60035f529091507fc2575a0e9e593c00f959f8c92f12db2869c3395a3b0502d05e2516446f71f85b601f840160051c810191602085106103ec575b90601f859493920160051c01905b8181106103de57506100cc565b5f81558493506001016103d1565b90915081906103c3565b91607f16916100b8565b5f80fd5b6040519190601f01601f191682016001600160401b0381118382101761030357604052565b81601f82011215610400578051906001600160401b03821161030357610458601f8301601f1916602001610404565b928284526020838301011161040057815f9260208093018386015e8301015290565b51906001600160a01b03821682036104005756fe6080806040526004361015610012575f80fd5b5f905f3560e01c90816306fdde0314610d9857508063094d7a2e14610d5d578063095ea7b314610cdb57806318160ddd14610cbe57806323b872dd14610bdf578063313ce56714610bc45780633161799414610ba757806370a0823114610b70578063715018a614610b15578063753e9ef014610ad157806379ee5e3314610ab45780638da5cb5b14610a8c57806390118fb41461079057806395d89b41146109885780639be3783d146109445780639d1b464a146109275780639e5f260214610905578063a9059cbb146108d4578063aad24061146108a5578063bab2185e14610888578063bdd3d8251461085c578063c764263a1461083a578063d5abeb011461081d578063dd62ed3e146107cd578063e73effd014610790578063f0724d2314610773578063f2fde38b146106ed578063fcfc0c09146106ca5763fe3f5ce21461015d575f80fd5b3461055c5761014036600319011261055c5760043590602435366101441161055c576002600654146106bb57600260065561019d60ff600a541615610f2c565b821561067657805f52600e60205260ff60405f20541661063157335f52600f60205260ff60405f2054166105e1576040516323b872dd60e01b8152336004820152306024820152604481018490526020816064815f7f00000000000000000000000000000000000000000000000000000000000000006001600160a01b03165af19081156105d6575f9161059b575b50156105605760018060a01b037f00000000000000000000000000000000000000000000000000000000000000001660405160208101903360601b82523060601b603482015260288152610281604882610ea6565b519020600b54600d5492803b1561055c575f92836101849260405196879586946301aa650960e51b8652600486015260248501528860448501526064840152610100604460848501375af19081610547575b506103165760405162461bcd60e51b81526020600482015260166024820152752bb7b9363224a21d1024b73b30b634b210383937b7b360511b6044820152606490fd5b6040518181527f3ce3861f233f7cc26caa8426b30e97a5b7afabb23448fb55227ab3186106fa0760203392a28152600e60205260408120600160ff19825416179055338152600f60205260408120600160ff19825416179055600754801561053357820461038681600254610f6c565b600954106104f85733156104e4576103a081600254610f6c565b6002553382528160205260408220818154019055604051818152827fddf252ad1be2c89b69c2b068fc378daa952ba7f163c4a11628f55a4df523b3ef60203393a36103ed83600854610f6c565b9081600855600754938185028581048314861517156104d05784956103e861041e920490600182106104c757610f6c565b918260075560405191825260208201528160408201527f0d1a0d5e3d583a0e92588799dd06e50fd78c07daf05f0cc06d7b848b1ca445f160603392a2683635c9adc5dea00000821015610475575b82600160065580f35b7f1c858049e704460ab9455025be4078f9e746e3fd426a56040d06389edb8197db916040916001600a546104ac60ff821615610f2c565b60ff191617600a5582519182526020820152a2805f8061046c565b60019150610f6c565b634e487b7160e01b85526011600452602485fd5b63ec442f0560e01b82526004829052602482fd5b60405162461bcd60e51b815260206004820152601360248201527213585e081cdd5c1c1b1e48195e18d959591959606a1b6044820152606490fd5b634e487b7160e01b82526012600452602482fd5b6105549193505f90610ea6565b5f915f6102d3565b5f80fd5b60405162461bcd60e51b815260206004820152601360248201527215d311081d1c985b9cd9995c8819985a5b1959606a1b6044820152606490fd5b90506020813d6020116105ce575b816105b660209383610ea6565b8101031261055c5751801515810361055c575f61022c565b3d91506105a9565b6040513d5f823e3d90fd5b60405162461bcd60e51b815260206004820152602260248201527f576f726c6449443a206164647265737320616c72656164792070757263686173604482015261195960f21b6064820152608490fd5b60405162461bcd60e51b815260206004820152601f60248201527f576f726c6449443a206e756c6c696669657220616c72656164792075736564006044820152606490fd5b60405162461bcd60e51b815260206004820152601d60248201527f416d6f756e74206d7573742062652067726561746572207468616e20300000006044820152606490fd5b633ee5aeb560e01b5f5260045ffd5b3461055c575f36600319011261055c576020604051683635c9adc5dea000008152f35b3461055c57602036600319011261055c57610706610e7a565b61070e611036565b6001600160a01b0316801561076057600580546001600160a01b0319811683179091556001600160a01b03167f8be0079c531659141344cd1fd0a4f28419497f9722a3daafe3b4186f6b6457e05f80a3005b631e4fbdf760e01b5f525f60045260245ffd5b3461055c575f36600319011261055c576020600d54604051908152f35b3461055c57602036600319011261055c576001600160a01b036107b1610e7a565b165f52600f602052602060ff60405f2054166040519015158152f35b3461055c57604036600319011261055c576107e6610e7a565b6107ee610e90565b6001600160a01b039182165f908152600160209081526040808320949093168252928352819020549051908152f35b3461055c575f36600319011261055c576020600954604051908152f35b3461055c575f36600319011261055c576020610854610edc565b604051908152f35b3461055c575f36600319011261055c57600a5460405160089190911c6001600160a01b03168152602090f35b3461055c575f36600319011261055c576020600854604051908152f35b3461055c57602036600319011261055c576004355f52600e602052602060ff60405f2054166040519015158152f35b3461055c57604036600319011261055c576108fa6108f0610e7a565b6024359033610f79565b602060405160018152f35b3461055c575f36600319011261055c57602060ff600a54166040519015158152f35b3461055c575f36600319011261055c576020600754604051908152f35b3461055c575f36600319011261055c576040517f00000000000000000000000000000000000000000000000000000000000000006001600160a01b03168152602090f35b3461055c575f36600319011261055c576040515f6004548060011c90600181168015610a82575b602083108114610a6e57828552908115610a4a57506001146109ec575b6109e8836109dc81850382610ea6565b60405191829182610e50565b0390f35b91905060045f527f8a35acfbc15ff81a39ae7d344fd709f28e8600b4aa8c65c6b64bfe7fe36bd19b915f905b808210610a30575090915081016020016109dc6109cc565b919260018160209254838588010152019101909291610a18565b60ff191660208086019190915291151560051b840190910191506109dc90506109cc565b634e487b7160e01b5f52602260045260245ffd5b91607f16916109af565b3461055c575f36600319011261055c576005546040516001600160a01b039091168152602090f35b3461055c575f36600319011261055c576020600c54604051908152f35b3461055c575f36600319011261055c576040517f00000000000000000000000000000000000000000000000000000000000000006001600160a01b03168152602090f35b3461055c575f36600319011261055c57610b2d611036565b600580546001600160a01b031981169091555f906001600160a01b03167f8be0079c531659141344cd1fd0a4f28419497f9722a3daafe3b4186f6b6457e08280a3005b3461055c57602036600319011261055c576001600160a01b03610b91610e7a565b165f525f602052602060405f2054604051908152f35b3461055c575f36600319011261055c576020600b54604051908152f35b3461055c575f36600319011261055c57602060405160128152f35b3461055c57606036600319011261055c57610bf8610e7a565b610c00610e90565b6001600160a01b0382165f818152600160209081526040808320338452909152902054909260443592915f198110610c3e575b506108fa9350610f79565b838110610ca3578415610c90573315610c7d576108fa945f52600160205260405f2060018060a01b0333165f526020528360405f209103905584610c33565b634a1406b160e11b5f525f60045260245ffd5b63e602df0560e01b5f525f60045260245ffd5b8390637dc7a0d960e11b5f523360045260245260445260645ffd5b3461055c575f36600319011261055c576020600254604051908152f35b3461055c57604036600319011261055c57610cf4610e7a565b602435903315610c90576001600160a01b0316908115610c7d57335f52600160205260405f20825f526020528060405f20556040519081527f8c5be1e5ebec7d5bd14f71427d1e84f3dd0314c0f7b2291e5b200ac8c7c3b92560203392a3602060405160018152f35b3461055c575f36600319011261055c57608060075460085460025460ff600a5416916040519384526020840152604083015215156060820152f35b3461055c575f36600319011261055c575f6003548060011c90600181168015610e46575b602083108114610a6e57828552908115610a4a5750600114610de8576109e8836109dc81850382610ea6565b91905060035f527fc2575a0e9e593c00f959f8c92f12db2869c3395a3b0502d05e2516446f71f85b915f905b808210610e2c575090915081016020016109dc6109cc565b919260018160209254838588010152019101909291610e14565b91607f1691610dbc565b602060409281835280519182918282860152018484015e5f828201840152601f01601f1916010190565b600435906001600160a01b038216820361055c57565b602435906001600160a01b038216820361055c57565b90601f8019910116810190811067ffffffffffffffff821117610ec857604052565b634e487b7160e01b5f52604160045260245ffd5b600854683635c9adc5dea00000811015610f2657606481029080820460641490151715610f1257683635c9adc5dea00000900490565b634e487b7160e01b5f52601160045260245ffd5b50606490565b15610f3357565b60405162461bcd60e51b8152602060048201526011602482015270105b1c9958591e4819dc98591d585d1959607a1b6044820152606490fd5b91908201809211610f1257565b6001600160a01b0316908115611023576001600160a01b031691821561101057815f525f60205260405f2054818110610ff757817fddf252ad1be2c89b69c2b068fc378daa952ba7f163c4a11628f55a4df523b3ef92602092855f525f84520360405f2055845f525f825260405f20818154019055604051908152a3565b8263391434e360e21b5f5260045260245260445260645ffd5b63ec442f0560e01b5f525f60045260245ffd5b634b637e8f60e11b5f525f60045260245ffd5b6005546001600160a01b0316330361104a57565b63118cdaa760e01b5f523360045260245ffdfea26469706673582212200142e53ad6aa6feca1ebbdee033eda389a92e563c40e5219fcb5b94f2241d4a264736f6c634300081c0033","linkReferences":{}},"methodIdentifiers":{"GRADUATION_THRESHOLD()":"fcfc0c09","allowance(address,address)":"dd62ed3e","approve(address,uint256)":"095ea7b3","balanceOf(address)":"70a08231","buy(uint256,uint256,uint256[8])":"fe3f5ce2","currentPrice()":"9d1b464a","decimals()":"313ce567","getBondingCurveState()":"094d7a2e","getGraduationProgress()":"c764263a","hasAddressPurchased(address)":"e73effd0","hasPurchased(address)":"90118fb4","isGraduated()":"9e5f2602","maxSupply()":"d5abeb01","name()":"06fdde03","owner()":"8da5cb5b","renounceOwnership()":"715018a6","symbol()":"95d89b41","totalRaisedWLD()":"bab2185e","totalSupply()":"18160ddd","transfer(address,uint256)":"a9059cbb","transferFrom(address,address,uint256)":"23b872dd","transferOwnership(address)":"f2fde38b","uniswapPool()":"bdd3d825","usedNullifiers(uint256)":"aad24061","wldToken()":"9be3783d","worldId()":"753e9ef0","worldIdExternalNullifier()":"f0724d23","worldIdGroupId()":"79ee5e33","worldIdRoot()":"31617994"},"id":7}